:020000040800F2
:1000000000200020B9000008390400084D04000851
:1000100000000000000000000000000000000000E0
:10002000000000000000000000000000390400088B
:100030000000000000000000390400083904000836
:10004000390400083904000839040008390400089C
:10005000390400083904000839040008390400088C
:1000600000000000390400083904000839040008C1
:1000700039040008390400080000000039040008B1
:10008000000000003904000800000000000000002B
:10009000390400080000000099170008390400081E
:1000A000390400083904000839040008C5060008AE
:1000B000390400083904000800F03AF900F0FCF8AF
:1000C000E1235B02180000F055FA62B6C04600F06A
:1000D000C1F8024B180000F0BDFBFEE74C8D000894
:1000E00080B582B000AF7860C0467B685A1E7A60E7
:1000F000002BFAD1C046C046BD4602B080BD80B5D7
:1001000000AF0B4B0B4A5A60094B00229A60084B18
:1001100005221A60C046064B1A6880235B02134012
:10012000F9D0034B00221A60C046BD4680BDC046D0
:1001300010E000E0FF7C000080B582B000AF786086
:1001400001E0FFF7DCFF7B685A1E7A60002BF8D1D4
:10015000C046C046BD4602B080BD80B584B000AF89
:1001600078603A4B3A4A5A60384B394A9A60374B72
:1001700005221A6007E0354B1A6880235B021340A2
:1001800001D000235EE0A023DB051A6980235B0019
:100190001340F0D12D4B00221A602C4B2C4A5A6090
:1001A0002A4B2B4A9A60294B05221A6007E0274BFD
:1001B0001A6880235B02134001D0002342E0A02391
:1001C000DB051A6980235B001340F0D01F4B00222F
:1001D0001A601E4B1E4A5A601C4B1D4A9A601B4BEC
:1001E00005221A600023FB6021E0184B1A68802367
:1001F0005B02134001D0002324E0A023DB051A6931
:1002000080235B001340F0D107E0104B1A68802375
:100210005B02134001D0002314E0A023DB051A6920
:1002200080235B001340F0D0FB680133FB60FA6869
:100230007B689A42E1DB054B00221A60034B9B6806
:10024000034AD31A1800BD4604B080BD10E000E098
:10025000FFFFFF0080B582B000AF01F071F901F03F
:1002600015FA01F057FA104B1B68002BFBD00E4B10
:1002700000221A600D4B1B68180001F0D3FA03002E
:100280007B607B68622B07DC084B1A687968084B37
:10029000180004F041FB03E0064B180004F0ECFBEF
:1002A000024B00221A60DEE7900200208C02002040
:1002B000008D00082C8D000880B582B000AF164B71
:1002C0007B60164B3B6007E07A68131D7B603B68E0
:1002D000191D396012681A603A68114B9A42F3D3BB
:1002E00004E03B681A1D3A6000221A603A680D4B20
:1002F0009A42F6D30C4B3B6004E03B681A1D3A600F
:100300001B6898473A68094B9A42F6D3C046C046E4
:10031000BD4602B080BDC046A49400080000002085
:10032000D4010020B4020020A4940008A494000882
:1003300080B500AF3B4B1A683A4B01210A431A6063
:10034000C046384B1B6804221340FAD0354B0122BB
:10035000DA60C046334BDB680C221340042BF9D122
:10036000314B1A68304B02210A431A602E4B1A682F
:100370002D4B01210A431A602A4B9A6B294B80218D
:1003800049050A439A63294B802212011A60C0462C
:10039000264B5B6810221340FAD1224BDA68214BBE
:1003A00023490A40DA601F4BDA681E4B8821C903D3
:1003B0000A43DA601B4A1B4BD268DA60194A194BB0
:1003C000D268DA60174A174BD268DA60154B1A68A0
:1003D000144B18490A401A60124B1A68114B8021BD
:1003E00049040A431A60C0460E4B1A6880239B04D6
:1003F0001340F9D00B4BDA680A4B03218A43DA60C9
:10040000084BDA68074B03210A43DA60C046054B04
:10041000DB680C2213400C2BF9D1C046C046BD4608
:1004200080BDC04600100240002002400070004025
:10043000FFFF02FFFFFFFFFE80B500AF024B180079
:1004400000F008FAFEE7C046748D000880B500AFE2
:10045000024B180000F0FEF9FEE7C046A48D00082C
:1004600090B585B000AF78603960184B1B68002BE1
:1004700002D101235B4224E00023FB600AE0FB6819
:100480005A1CFA603A68D418114B180000F0ADF904
:10049000030023707B68013B1A00FB68934205D27E
:1004A0000B4B180000F0CCF9031EE8D1FB68002BC1
:1004B00006D03A68FB68D31800221A70FB6800E087
:1004C00000231800BD4605B090BDC0466C02002058
:1004D000D401002080B584B000AF78603960224B31
:1004E0001B68002B02D101235B4238E07B683F2B65
:1004F0000BDCC0461D4B180000F0A2F9030040229F
:10050000D21A7B689A42F5D302E002235B4226E0CE
:100510000023FB600BE03A68FB68D3181A78134B92
:100520001100180000F030F9FB680133FB607B68B4
:10053000FA689A42EFD30E4B1B68082213400DD184
:100540000B4B1A680A4B08210A431A60074B180024
:1005500000F04BF903001A00054B9A6200231800C3
:10056000BD4604B080BDC0466C02002020020020C1
:100570000038014080B584B000AF786072B6C046E4
:10058000454B00229A64444B9A6C434B5A64424B4D
:100590005A6C414B1A64414B00229A643F4B9A6C4F
:1005A0003E4B5A643D4B5A6C3C4B1A643C4B012207
:1005B0001A603C4B00221A603B4BDA6A3A4B01212D
:1005C0000A43DA62394BFB607968F86802F0C2F9D5
:1005D0000300FB60A023DB059A68A023DB058021D4
:1005E000C9020A439A60A023DB055A68A023DB05F1
:1005F0002F490A405A60A023DB051B682D4A1A4088
:10060000A023DB05802109030A431A60A023DB0530
:100610005A6AA023DB0540210A435A62A023DB0566
:100620001B68254A1A40A023DB05802189030A4361
:100630001A60A023DB055A6AA023DB058021C900CC
:100640000A435A62184B5A6B174B8021C9010A435F
:100650005A631A4B1A68194B6C210A431A60174BDC
:1006600000225A60154B00229A60144BFA68DA6037
:10067000124B1A68114B01210A431A60104B1A6879
:100680000F4B802109050A431A6062B6C046C04676
:10069000BD4604B080BDC046D40100202002002029
:1006A0006C02002070020020001002400048E801A7
:1006B000FFFDFFFFFFFFF3FFFFFFCFFF003801400B
:1006C00000E100E080B500AF084BDB6980221340F9
:1006D00001D000F025F8054BDB692022134001D042
:1006E00000F006F8C046BD4680BDC0460038014057
:1006F00080B500AF074B5B6ADAB2074B11001800F8
:1007000000F042F8031E02D0044B01221A60C046DA
:10071000BD4680BD00380140D40100207002002099
:1007200080B500AF164B180000F08AF8031E08D001
:10073000134B180000F059F803001A00114B9A628D
:100740001BE0104B1A680F4B08218A431A600D4BAF
:10075000DB694022134005D00A4B1A6A094B40213D
:100760000A431A62074BDB698022134005D0054B10
:100770009A69044B10210A439A61C046BD4680BD68
:10078000200200200038014080B582B000AF7860C0
:100790000A00FB1C1A707B681A6C7B685B6C9A42BF
:1007A00005D17B689B6C002B01D0012319E072B648
:1007B000C0467B681B6C591C7A6811647A68F91C06
:1007C0000978D1547B689B6C5A1C7B689A647B685F
:1007D0001B6C402B02D17B6800221A6462B6C046B3
:1007E00000231800BD4602B080BD80B584B000AFC4
:1007F00078607B689B6C002B01D100231CE072B6F3
:10080000C0467B685B6C591C7A6851640F22BA1829
:100810007968CB5C13707B685B6C402B02D17B6882
:1008200000225A647B689B6C5A1E7B689A6462B68D
:10083000C0460F23FB181B781800BD4604B080BDCE
:1008400080B582B000AF78607B689B6C1800BD46B5
:1008500002B080BD80B582B000AF78600B4B1B68E2
:10086000002B09D101235B420BE07B685A1C7A60A4
:1008700019000120FFF72EFE7B681B78002BF4D1B6
:1008800000231800BD4602B080BDC0466C020020A7
:1008900080B582B000AF0200FB1D1A70FB1D19006D
:1008A0000120FFF717FEC046BD4602B080BD80B5EF
:1008B00000AF044B1800FFF798FF03001800BD4677
:1008C00080BDC046D4010020B0B584B000AF7860D0
:1008D00039601E4B1B68002B02D101235B4231E0C3
:1008E0000023FB600B23FB1800221A7017E0C046A0
:1008F000174B1800FFF7A4FF031EF9D00B257C1936
:10090000134B1800FFF771FF03002370FB685A1C9C
:10091000FA601A007B689B187A1912781A703B6883
:10092000013BFA689A4204DA0B23FB181B780D2B63
:10093000DDD1FB68002B04DDFB687A68D318002248
:100940001A70FB681800BD4604B0B0BD6C020020F0
:10095000D401002090B583B000AFFC1DFFF7A7FFC6
:1009600003002370FB1D1B781800FFF791FFFB1D90
:100970001B781800BD4603B090BDB0B584B000AF81
:1009800078603960214B1B68002B02D101235B4248
:1009900037E00023FB600B23FB1800221A701DE0D8
:1009A000C0461B4B1800FFF74BFF031EF9D00B2569
:1009B0007C19174B1800FFF718FF030023702C0059
:1009C0003B191B781800FFF763FFFB685A1CFA609D
:1009D0001A007B689B183A1912781A703B68013B21
:1009E000FA689A4204DA0B23FB181B780D2BD7D137
:1009F000FB68002B04DDFB687A68D31800221A70AC
:100A0000FB681800BD4604B0B0BDC0466C020020B3
:100A1000D401002080B582B000AF7860FEE780B5D9
:100A200082B000AF786001235B421800BD4602B07F
:100A300080BD80B584B000AFF860B9607A60044BC7
:100A40000C221A6001235B421800BD4604B080BD31
:100A50009802002080B500AF034B0B221A600123DF
:100A60005B421800BD4680BD9802002080B582B070
:100A700000AF786039603B68802292015A600023A1
:100A80001800BD4602B080BD80B500AF012318003C
:100A9000BD4680BD80B582B000AF78603960044B40
:100AA00016221A6001235B421800BD4602B080BDC9
:100AB0009802002080B582B000AF78603960044BA6
:100AC0001F221A6001235B421800BD4602B080BDA0
:100AD0009802002080B584B000AFF860B9607A60F9
:100AE00000231800BD4604B080BD80B582B000AFC1
:100AF000786039603B68802292015A6000231800B8
:100B0000BD4602B080BD80B582B000AF78600123E1
:100B10005B421800BD4602B080BD80B582B000AF18
:100B20007860044B02221A6001235B421800BD4624
:100B300002B080BD9802002080B582B000AF78601E
:100B4000044B0A221A6001235B421800BD4602B022
:100B500080BDC0469802002080B582B000AF7860AA
:100B60007B68022B01D8012303E0044B09221A60A1
:100B700000231800BD4602B080BDC0469802002088
:100B800080B586B000AF7860124B7B61124B3B6141
:100B9000124B1B68002B02D1104B7A691A600F4B65
:100BA0001B68FB600D4B1A687B68D3183A699A4240
:100BB00005D20B4B0C221A6001235B4206E0074B67
:100BC0001A687B68D218054B1A60FB681800BD468E
:100BD00006B080BDB4020020001000207C0200207E
:100BE0009802002080B588B000AFF860B9607A60E4
:100BF0000023BB61FB68002B22D10023FB611AE0BC
:100C0000FFF755FE03001A0017217B181A70BB6806
:100C10005A1CBA607A181278D2B21A70BB690133C2
:100C2000BB617B181B78DBB20A2B01D1BB690EE0DC
:100C3000FB690133FB61FA697B689A42E0DB05E0FE
:100C4000054B09221A6001235B4200E0BB691800D2
:100C5000BD4608B080BDC0469802002080B586B071
:100C600000AFF860B9607A60FB68013B012B11D8D6
:100C700000237B6109E0BB685A1CBA601B7818002E
:100C8000FFF706FE7B6901337B617A697B689A42D4
:100C9000F1DB05E0054B09221A6001235B4200E00D
:100CA0007B681800BD4606B080BDC0469802002093
:100CB00080B500AF1F4BDA6A1E4B02210A43DA628D
:100CC0001C4B9A6B1B4B802189030A439A631A4B76
:100CD0001B681A4A1A40184B802189010A431A607E
:100CE000154B1A6A144B802149040A431A62124BAD
:100CF0001B68134A1A40104B802109020A431A60EC
:100D00000D4B1A6A0C4B802149050A431A620A4BA3
:100D10005A68094BC0210A435A60074B9A68064B30
:100D2000A021C9010A439A60064B074A1A61C046CE
:100D3000BD4680BD0010024000040050FFCFFFFF01
:100D4000FF3FFFFF00540040130F427080B582B098
:100D500000AF02003960FB1D1A70214B01221A609E
:100D60001F4B204A5A601E4B5A681D4B8021890137
:100D70000A435A60C0461A4B9B6901221340012B5B
:100D8000F9D1174BFA1D12789A62C046144B9B6931
:100D900001221340012BF9D10120FFF7CDF9104BAF
:100DA00005221A600E4B104A5A600D4B5A680C4BC4
:100DB000802189010A435A60C046094B9B6904227D
:100DC0001340042BF9D1064B5B6ADAB23B681A7008
:100DD0000120FFF7B1F901231800BD4602B080BD24
:100DE00000540040520001025204010280B582B05A
:100DF00000AF02003960FB1D1A702A4B01221A60F5
:100E0000284B294A5A60274B5A68264B8021890172
:100E10000A435A60C046234B9B6901221340012BB1
:100E2000F9D1204BFA1D12789A62C0461D4B9B697E
:100E300001221340012BF9D10120FFF77DF9194B55
:100E400005221A60174B194A5A60164B5A68154BFF
:100E5000802189010A435A60C046124B9B690422D3
:100E60001340042BF9D10F4B5B6A9BB21B029AB261
:100E70003B681A80C0460B4B9B6904221340042B2D
:100E8000F9D1084B596A3B681A888BB2D3189AB2C9
:100E90003B681A800120FFF74FF901231800BD4677
:100EA00002B080BD00540040520001025204020210
:100EB00080B582B000AF0200FB1D1A70BB1D0A1C7A
:100EC0001A70194B01221A60174B184A5A60164BB8
:100ED0005A68154B802189010A435A60C046124B5B
:100EE0009B6901221340012BF9D10F4BFA1D127897
:100EF0009A62C0460C4B9B6901221340012BF9D129
:100F0000094BBA1D12789A62C046074B9B690122B1
:100F10001340012BF9D10120FFF70EF9012318002E
:100F2000BD4602B080BDC0460054004052000202DF
:100F300080B582B000AFFB1D00221A703B1D00225D
:100F40001A800A2003F012FDFB1D1900C020FFF7D4
:100F5000FDFEFB1D1B781A00204B1100180003F04A
:100F6000DBFCFB1D1900C120FFF7F0FEFB1D1B7809
:100F70001A001B4B1100180003F0CEFCFB1D1900DA
:100F8000C220FFF7E3FEFB1D1B781A00154B110072
:100F9000180003F0C1FC3B1D19005120FFF726FF8C
:100FA0003B1D1B881A00104B1100180003F0B4FC05
:100FB0003B1D19006120FFF719FF3B1D1B881A001C
:100FC0000A4B1100180003F0A7FC094B180003F0AE
:100FD00053FDC046BD4602B080BDC046C88D000866
:100FE000DC8D0008F08D0008048E0008188E0008C3
:100FF0002C8E000880B582B000AFFA235B00180089
:10100000FFF79AF8124B180003F086FC114B124AB6
:101010001249134803F080FCFFF74AFEFFF788FFF0
:1010200001F0F8FA03001A00FB1D1A70FB1D1B7873
:10103000002B04D00B4B180003F01EFD03E00A4BFD
:10104000180003F019FDC046BD4602B080BDC04681
:10105000308E00083C8E0008488E0008548E000830
:10106000608E0008A48E0008C88E000880B582B08B
:1010700000AF3B1D00221A803B1D180001F0FCFA56
:1010800003001A00FB1D1A70FB1D1B78002B10D0EB
:101090003B1D1B881A00094B1100180003F03CFC93
:1010A000074B1B689B68180002F04EFD6420FFF799
:1010B00043F8C046BD4602B080BDC046E88E000879
:1010C0000400002080B500AF594B9A6B584B0121AA
:1010D0000A439A63564BDA6A554B01210A43DA6296
:1010E000A023DB051B68032293431A00A023DB0522
:1010F00002210A431A60A023DB051B6A0F229343D7
:101100001A00A023DB0502210A431A62A023DB0593
:101110005A68A023DB0501218A435A60A023DB051E
:101120001B680C2293431A00A023DB0508210A4305
:101130001A60A023DB051B6AF02293431A00A02348
:10114000DB0520210A431A62A023DB055A68A0238D
:10115000DB0502218A435A60A023DB051B6830228D
:1011600093431A00A023DB0520210A431A60A02321
:10117000DB051B6A2F4A1A40A023DB05802189006A
:101180000A431A62A023DB055A68A023DB05042169
:101190008A435A60A023DB051B68C02293431A00D0
:1011A000A023DB0580210A431A60A023DB051B6A0C
:1011B000214A1A40A023DB05802189010A431A62D3
:1011C000A023DB055A68A023DB0508218A435A6067
:1011D0008023DB0501229A628023DB05174ADA624D
:1011E0008023DB0500225A638023DB0500229A63FB
:1011F0008023DB050022DA638023DB0500221A64EA
:101200008023DB050E4A9A618023DB050C4ADA61F4
:101210008023DB050B4A1A628023DB051A688023D2
:10122000DB0501210A431A60C046BD4680BDC046A9
:1012300000100240FFF0FFFFFF0FFFFFE703000079
:10124000686800001111000080B582B000AF7860BE
:1012500039607A68FA239B009A4202DDFA239B00E8
:101260007B607B68234A934201DA224B7B603A68B9
:10127000FA239B009A4202DDFA239B003B603B6805
:101280001C4A934201DA1B4B3B607B68FA229200B6
:1012900094466344002B00DA01335B101A0080236C
:1012A000DB055A637B68FA229200D31A00D501331A
:1012B0005B101A008023DB059A633B68FA229200D8
:1012C00094466344002B00DA01335B101A0080233C
:1012D000DB05DA633B68FA229200D31A00D50133AA
:1012E0005B101A008023DB051A64C046BD4602B0BD
:1012F00080BDC04618FCFFFF80B584B000AFF86029
:10130000B9607A603B60FB68BA681A60FB683A684B
:101310009A60FB687A685A60FB6800221A61FB6871
:101320000022DA60C046BD4604B080BD90B585B0ED
:1013300000AF78600A00BB1C1A807B681C69BB1C6C
:101340001B88180002F086FA031C3549181C01F0AE
:101350008DFF031C191C201C01F022FC031C1A1C0D
:101360007B681A61BB1C1B88180002F073FA021C10
:101370007B68DB68191C101C02F09EF8031C2849CE
:10138000181C01F0ABFD031CFB60BB1C1B88180084
:1013900002F0AEFA021C7B68DA607B681B692149A7
:1013A000181C01F0E9FB031E02D07B681D4A1A617C
:1013B0007B681B691C49181C01F0CAFB031E02D084
:1013C0007B68194A1A617B681C68BB1C1B88180063
:1013D00002F040FA031C191C201C01F047FF031CFB
:1013E0001C1C7B685A687B681B69191C101C01F067
:1013F0003DFF031C191C201C01F0D2FB031C1C1C0C
:101400007B689B68F968181C01F030FF031C191CED
:10141000201C01F0C5FB031C181CBD4605B090BD87
:101420000AD7A33C00007A4400007AC490B585B086
:1014300000AF786039603968786801F0B1FB031C4F
:10144000FB603968786802F037F8031CBB60F86805
:1014500002F0E0F90200FA239B009A4201DD334BCF
:10146000FB60F86802F0D6F90300314A934201DAD2
:10147000304BFB60B86802F0CDF90200FA239B0004
:101480009A4201DD294BBB60B86802F0C3F9030042
:10149000274A934201DA274BBB600021F86801F02C
:1014A0006BFB031E07D02449F86801F051FB031EB3
:1014B00001D0214BFB600021F86801F049FB031EBD
:1014C00007D01E49F86801F057FB031E01D01B4BE3
:1014D000FB600021B86801F04FFB031E07D01649DE
:1014E000B86801F035FB031E01D0134BBB6000212F
:1014F000B86801F02DFB031E07D01049B86801F051
:101500003BFB031E01D00D4BBB60F86802F082F973
:101510000400B86802F07EF9030019002000FFF70C
:1015200093FEC046BD4605B090BDC04600007A445B
:1015300018FCFFFF00007AC40000C8420000C8C2C7
:1015400080B582B000AF2C4BDA6A2B4B01210A43E5
:10155000DA62294B5A6B284B802189000A435A636F
:10156000A023DB051A68A023DB05FC2189010A43BF
:101570001A60A023DB05DA68A023DB051F490A40B7
:10158000DA601F4B9B68012213400BD01C4B9A68FA
:101590001B4B02210A439A60C046194B9B680122EB
:1015A0001340FAD1164B9A68154B802149050A431E
:1015B0009A6000237B6002E07B6801337B607A687D
:1015C000FA239B009A42F7DB0D4B5A690C4B07211B
:1015D0000A435A610A4B9A68094B01210A439A60EF
:1015E000C046074B1B6801221340FAD0C046C046D4
:1015F000BD4602B080BDC04600100240FFC0FFFFE4
:101600000024014080B584B000AF0200FB1D1A70B9
:10161000FB1D1B7801229A400F4B9A620E4B9A6871
:101620000D4B04210A439A600C4BFB6007E0FB68FA
:10163000013BFB60FB68002B01D13D2307E0064B1B
:101640001B6804221340F2D0034B1B6C9BB21800A2
:10165000BD4604B080BDC04600240140A086010004
:1016600080B582B000AF0200FB1D1A70FB1D1B7815
:101670001A001F23134001229A40034B1A60C046F0
:10168000BD4602B080BDC04600E100E080B500AFBD
:101690001D4BDA6A1C4B01210A43DA62A023DB05E9
:1016A0001A68A023DB0519490A401A60A023DB054C
:1016B0001A68A023DB05802109020A431A60A023CF
:1016C000DB051A6AA023DB05120112091A62A023A6
:1016D000DB051A6AA023DB05A021C9050A431A62AB
:1016E000A023DB05DA68A023DB058021C9010A43BA
:1016F000DA60A023DB05DA68A023DB0504490A4091
:10170000DA60C046BD4680BD00100240FF3FFFFFCB
:10171000FF7FFFFF80B500AF1B4B5A6B1A4B202198
:101720000A435A63194B0F229A62184B184ADA621D
:10173000164B9A69154B17490A409A61134B9A69DF
:10174000124B802149000A439A61104B1A6A0F4BD1
:10175000A0210A431A620D4B1A6A0C4B10210A434E
:101760001A620A4BDA68094B04210A43DA60162030
:10177000FFF776FF054B1A68044B01210A431A60F4
:10178000C046BD4680BDC046001002400014014066
:10179000FFFF0000FFFCFFFF80B500AF1B4B1B6984
:1017A000042213402FD0194B9B6B1A00184B1A6060
:1017B000A023DB051B698022134004D1144B1A6857
:1017C000144B1A6019E0124B1A68124B1B689A42AC
:1017D00007DB0F4B1A680F4B1B68D21A0E4B1A60AF
:1017E00008E00C4B1B680D4AD21A094B1B68D21833
:1017F000094B1A600A4B01221A60044B1A69034B09
:1018000004218A431A61C046BD4680BD00140140D0
:1018100084020020800200208C020020FFFF0000D4
:101820009002002080B582B000AF7860FA235B00A0
:10183000963B7A689A4203DA2C4B00221A604EE0FB
:10184000FA235B0095337A689A4203DC274B012226
:101850001A6044E0C8239B0095337A689A4203DCFF
:10186000224B02221A603AE0214B95337A689A4261
:1018700003DC1E4B03221A6031E0AF23DB009533FB
:101880007A689A4203DC194B04221A6027E0194B4C
:1018900095337A689A4203DC144B05221A601EE0E5
:1018A000FA23DB0095337A689A4203DC0F4B062259
:1018B0001A6014E0104B95337A689A4203DC0B4BA4
:1018C00007221A600BE00D4B95337A689A4203DCCD
:1018D000064B08221A6002E0044B63221A60034B95
:1018E0001B681800BD4602B080BDC04688020020BB
:1018F0004C040000A4060000FC080000280A0000B8
:1019000080B500AF204BDA6A1F4B01210A43DA622F
:101910001D4B9A6B1C4B802189020A439A63A023BA
:10192000DB051A68A023DB05F0218A431A60A02397
:10193000DB051A68A023DB05A0210A431A60A02357
:10194000DB051A6AA023DB0510490A401A62A023AE
:10195000DB051A6AA023DB058821C9010A431A6244
:101960000B4B1622FF32DA60094B1A68084B0C2128
:101970000A431A60064B1A68054B01210A431A6094
:10198000C046BD4680BDC04600100240FF00FFFFBC
:101990000044004080B582B000AF0200FB1D1A7009
:1019A000C046064BDB6980221340FAD0034BFA1D78
:1019B00012789A62C046BD4602B080BD0044004025
:1019C00080B582B000AF786006E07B685A1C7A6010
:1019D0001B781800FFF7DEFF7B681B78002BF4D123
:1019E000C046C046BD4602B080BD90B587B000AFCE
:1019F0000200BB1D1A8000237B61BB1D1B88002BCE
:101A00001DD13020FFF7C6FF2BE0BB1D1B880A212C
:101A1000180000F09BFF0B009BB2DAB27B69591CE7
:101A200079613032D1B20822BA18D154BC1DBB1D25
:101A30001B880A21180000F003FF03002380BB1D50
:101A40001B88002BE1D107E00823FA187B69D31823
:101A50001B781800FFF79EFF7B695A1E7A61002BE6
:101A6000F2D1BD4607B090BD80B582B000AFFB1D7E
:101A700000221A70FB1D1900C020FFF767F9031E32
:101A800001D1002305E0FB1D1B78EE3B5A42534178
:101A9000DBB21800BD4602B080BD80B582B000AF99
:101AA000FB1D00221A70BB1D00221A70BB1D1900FD
:101AB0008920FFF74BF9031E01D1002378E0BB1DFD
:101AC0001B7801221343DAB2BB1D1A70BB1D1B78B1
:101AD00019008920FFF7ECF9031E01D1002367E00C
:101AE00000218820FFF7E4F903001A00FB1D511EB6
:101AF0008A411A7001218020FFF7DAF903001A00E9
:101B0000FB1D1B781A40FB1D511E8A411A700121D2
:101B1000FF20FFF7CDF903001A00FB1D1B781A40C8
:101B2000FB1D511E8A411A7000210020FFF7C0F9E9
:101B300003001A00FB1D1B781A40FB1D511E8A4131
:101B40001A701D4B19009120FFF700F903001A00CD
:101B5000FB1D1B781A40FB1D511E8A411A70012182
:101B60000020FFF7A5F903001A00FB1D1B781A409F
:101B7000FB1D511E8A411A700021FF20FFF798F9C2
:101B800003001A00FB1D1B781A40FB1D511E8A41E1
:101B90001A7000218020FFF78BF903001A00FB1D4B
:101BA0001B781A40FB1D511E8A411A70FB1D1B78C1
:101BB0001800BD4602B080BD9402002080B582B0FE
:101BC00000AF0121FF20FFF773F903001A00FB1D8E
:101BD000511E8A411A7000210020FFF769F90300A5
:101BE0001A00FB1D1B781A40FB1D511E8A411A70FA
:101BF0000021FF20FFF75CF903001A00FB1D1B7892
:101C00001A40FB1D511E8A411A7000210920FFF75E
:101C10004FF903001A00FB1D1B781A40FB1D511ED3
:101C20008A411A7000211020FFF742F903001A00C0
:101C3000FB1D1B781A40FB1D511E8A411A700021A2
:101C40001120FFF735F903001A00FB1D1B781A401D
:101C5000FB1D511E8A411A7001212420FFF728F92B
:101C600003001A00FB1D1B781A40FB1D511E8A4100
:101C70001A70FF212520FFF71BF903001A00FB1D36
:101C80001B781A40FB1D511E8A411A7000217520D5
:101C9000FFF70EF903001A00FB1D1B781A40FB1D0D
:101CA000511E8A411A700121FF20FFF701F903003C
:101CB0001A00FB1D1B781A40FB1D511E8A411A7029
:101CC0002C214E20FFF7F4F803001A00FB1D1B78AF
:101CD0001A40FB1D511E8A411A7000214820FFF74F
:101CE000E7F803001A00FB1D1B781A40FB1D511E6C
:101CF0008A411A7020213020FFF7DAF803001A0019
:101D0000FB1D1B781A40FB1D511E8A411A700021D1
:101D1000FF20FFF7CDF803001A00FB1D1B781A40C7
:101D2000FB1D511E8A411A7009213020FFF7C0F8AF
:101D300003001A00FB1D1B781A40FB1D511E8A412F
:101D40001A7000215420FFF7B3F803001A00FB1D9E
:101D50001B781A40FB1D511E8A411A700421312044
:101D6000FFF7A6F803001A00FB1D1B781A40FB1DA5
:101D7000511E8A411A7003213220FFF799F803009F
:101D80001A00FB1D1B781A40FB1D511E8A411A7058
:101D900083214020FFF78CF803001A00FB1D1B78FD
:101DA0001A40FB1D511E8A411A7025214620FFF75B
:101DB0007FF803001A00FB1D1B781A40FB1D511E03
:101DC0008A411A7000216020FFF772F803001A00A0
:101DD000FB1D1B781A40FB1D511E8A411A70002101
:101DE0002720FFF765F803001A00FB1D1B781A4037
:101DF000FB1D511E8A411A7006215020FFF758F82A
:101E000003001A00FB1D1B781A40FB1D511E8A415E
:101E10001A7000215120FFF74BF803001A00FB1D38
:101E20001B781A40FB1D511E8A411A7096215220C0
:101E3000FFF73EF803001A00FB1D1B781A40FB1D3C
:101E4000511E8A411A7008215620FFF731F803000D
:101E50001A00FB1D1B781A40FB1D511E8A411A7087
:101E600030215720FFF724F803001A00FB1D1B78D0
:101E70001A40FB1D511E8A411A7000216120FFF794
:101E800017F803001A00FB1D1B781A40FB1D511E9A
:101E90008A411A7000216220FFF70AF803001A0035
:101EA000FB1D1B781A40FB1D511E8A411A70002130
:101EB0006420FEF7FDFF03001A00FB1D1B781A408B
:101EC000FB1D511E8A411A7000216520FEF7F0FFAC
:101ED00003001A00FB1D1B781A40FB1D511E8A418E
:101EE0001A70A0216620FEF7E3FF03001A00FB1D15
:101EF0001B781A40FB1D511E8A411A700121FF20D8
:101F0000FEF7D6FF03001A00FB1D1B781A40FB1DCD
:101F1000511E8A411A7032212220FEF7C9FF0300A8
:101F20001A00FB1D1B781A40FB1D511E8A411A70B6
:101F300014214720FEF7BCFF03001A00FB1D1B788D
:101F40001A40FB1D511E8A411A70FF214920FEF7DD
:101F5000AFFF03001A00FB1D1B781A40FB1D511E2A
:101F60008A411A7000214A20FEF7A2FF03001A00DE
:101F7000FB1D1B781A40FB1D511E8A411A7000215F
:101F8000FF20FEF795FF03001A00FB1D1B781A4087
:101F9000FB1D511E8A411A700A217A20FEF788FF24
:101FA00003001A00FB1D1B781A40FB1D511E8A41BD
:101FB0001A7000217B20FEF77BFF03001A00FB1D37
:101FC0001B781A40FB1D511E8A411A70212178206E
:101FD000FEF76EFF03001A00FB1D1B781A40FB1D65
:101FE000511E8A411A700121FF20FEF761FF030094
:101FF0001A00FB1D1B781A40FB1D511E8A411A70E6
:1020000034212320FEF754FF03001A00FB1D1B7828
:102010001A40FB1D511E8A411A7000214220FEF712
:1020200047FF03001A00FB1D1B781A40FB1D511EC1
:102030008A411A70FF214420FEF73AFF03001A007C
:10204000FB1D1B781A40FB1D511E8A411A70262168
:102050004520FEF72DFF03001A00FB1D1B781A40D8
:10206000FB1D511E8A411A7005214620FEF720FFF4
:1020700003001A00FB1D1B781A40FB1D511E8A41EC
:102080001A7040214020FEF713FF03001A00FB1DC9
:102090001B781A40FB1D511E8A411A7006210E2022
:1020A000FEF706FF03001A00FB1D1B781A40FB1DFC
:1020B000511E8A411A701A212020FEF7F9FE0300F2
:1020C0001A00FB1D1B781A40FB1D511E8A411A7015
:1020D00040214320FEF7ECFE03001A00FB1D1B7895
:1020E0001A40FB1D511E8A411A700021FF20FEF785
:1020F000DFFE03001A00FB1D1B781A40FB1D511E5A
:102100008A411A7003213420FEF7D2FE03001A0020
:10211000FB1D1B781A40FB1D511E8A411A70442179
:102120003520FEF7C5FE03001A00FB1D1B781A4080
:10213000FB1D511E8A411A700121FF20FEF7B8FED7
:1021400003001A00FB1D1B781A40FB1D511E8A411B
:102150001A7004213120FEF7ABFE03001A00FB1DAC
:102160001B781A40FB1D511E8A411A7009214B2011
:10217000FEF79EFE03001A00FB1D1B781A40FB1D94
:10218000511E8A411A7005214C20FEF791FE030072
:102190001A00FB1D1B781A40FB1D511E8A411A7044
:1021A00004214D20FEF784FE03001A00FB1D1B785E
:1021B0001A40FB1D511E8A411A700021FF20FEF7B4
:1021C00077FE03001A00FB1D1B781A40FB1D511EF1
:1021D0008A411A7000214420FEF76AFE03001A00AB
:1021E000FB1D1B781A40FB1D511E8A411A702021CD
:1021F0004520FEF75DFE03001A00FB1D1B781A4008
:10220000FB1D511E8A411A7008214720FEF750FE1F
:1022100003001A00FB1D1B781A40FB1D511E8A414A
:102220001A7028214820FEF743FE03001A00FB1D08
:102230001B781A40FB1D511E8A411A70002167202D
:10224000FEF736FE03001A00FB1D1B781A40FB1D2B
:10225000511E8A411A7004217020FEF729FE0300E6
:102260001A00FB1D1B781A40FB1D511E8A411A7073
:1022700001217120FEF71CFE03001A00FB1D1B78D4
:102280001A40FB1D511E8A411A70FE217220FEF772
:102290000FFE03001A00FB1D1B781A40FB1D511E88
:1022A0008A411A7000217620FEF702FE03001A0010
:1022B000FB1D1B781A40FB1D511E8A411A7000211C
:1022C0007720FEF7F5FD03001A00FB1D1B781A406E
:1022D000FB1D511E8A411A700121FF20FEF7E8FD07
:1022E00003001A00FB1D1B781A40FB1D511E8A417A
:1022F0001A7001210D20FEF7DBFD03001A00FB1D03
:102300001B781A40FB1D511E8A411A700021FF20C4
:10231000FEF7CEFD03001A00FB1D1B781A40FB1DC3
:10232000511E8A411A7001218020FEF7C1FD030071
:102330001A00FB1D1B781A40FB1D511E8A411A70A2
:10234000F8210120FEF7B4FD03001A00FB1D1B78E5
:102350001A40FB1D511E8A411A700121FF20FEF711
:10236000A7FD03001A00FB1D1B781A40FB1D511E20
:102370008A411A7001218E20FEF79AFD03001A008F
:10238000FB1D1B781A40FB1D511E8A411A7001214A
:102390000020FEF78DFD03001A00FB1D1B781A407C
:1023A000FB1D511E8A411A700021FF20FEF780FD9F
:1023B00003001A00FB1D1B781A40FB1D511E8A41A9
:1023C0001A7000218020FEF773FD03001A00FB1D28
:1023D0001B781A40FB1D511E8A411A70FB1D1B7889
:1023E0001800BD4602B080BD80B582B000AFFB1DB5
:1023F00000221A7004210A20FEF75AFD031E01D1A3
:10240000002322E0FB1D19008420FEF79FFC031E21
:1024100001D1002319E0FB1D1B7810229343DAB28F
:10242000FB1D1A70FB1D1B7819008420FEF740FD70
:10243000031E01D1002308E001210B20FEF738FD27
:10244000031E01D1002300E001231800BD4602B0A5
:1024500080BD80B582B000AF0200FB1D1A70FB1D6D
:102460001B7819000120FEF723FD03005A1E93413B
:10247000DBB21800BD4602B080BD80B500AFFFF7EB
:102480009DFB03001A0001235340DBB2002B01D057
:10249000002317E0FFF7A8FF03001A0001235340B1
:1024A000DBB2002B01D000230CE0E820FFF7D1FFC6
:1024B00003001A0001235340DBB2002B01D000239C
:1024C00000E001231800BD4680BD90B585B000AF87
:1024D0000200FB1D1A700F23FB1800221A700E2336
:1024E000FB1800221A700C23FB1800221A700D230F
:1024F000FB1800221A70FB1D1B78002B02D0012B49
:1025000009D011E00E23FB1801221A700F23FB18CB
:1025100041221A7008E00E23FB1802221A700F23C2
:10252000FB1801221A70C0460E23FB181B781900F5
:102530000120FEF7BDFC031E01D100233CE00F2368
:10254000FB181B7819000020FEF7B2FC031E01D116
:10255000002331E00C243B1919001320FEF7F6FB91
:1025600003001A000D203B18511E8A411A703B18B7
:102570001B78002B05D03B191B781A00072313404A
:10258000E8D00D23FB181B7801225340DBB2002B4F
:1025900001D0002310E001210B20FEF789FC031E6F
:1025A00001D1002308E000210020FEF781FC031E7A
:1025B00001D1002300E001231800BD4605B090BD05
:1025C00080B500AF0020FFF780FF03001A00012351
:1025D0005340DBB2002B01D0002318E00120FFF7AD
:1025E00074FF03001A0001235340DBB2002B01D01B
:1025F00000230CE0E820FFF72CFF03001A00012362
:102600005340DBB2002B01D0002300E0012318006F
:10261000BD4680BD80B500AFFFF726FA03001A0063
:1026200001235340DBB2002B01D0002321E0FFF750
:1026300034FA03001A0001235340DBB2002B01D00F
:10264000002316E0FFF719FF03001A00012353408F
:10265000DBB2002B01D000230BE0FFF7B1FF03003A
:102660001A0001235340DBB2002B01D0002300E00D
:1026700001231800BD4680BD90B585B000AF7860DD
:102680000E23FB1800221A700D23FB1800221A706B
:1026900001218020FEF70CFC03001A000F243B19D7
:1026A000511E8A411A700121FF20FEF701FC030030
:1026B0001A003B191B781A403B19511E8A411A70A7
:1026C00000210020FEF7F4FB03001A003B191B78E1
:1026D0001A403B19511E8A411A70564B1B7819003B
:1026E0009120FEF7E5FB03001A003B191B781A4006
:1026F0003B19511E8A411A7001210020FEF7D8FBB8
:1027000003001A003B191B781A403B19511E8A41DD
:102710001A700021FF20FEF7CBFB03001A003B19C3
:102720001B781A403B19511E8A411A7000218020E3
:10273000FEF7BEFB03001A003B191B781A403B1939
:10274000511E8A411A703B191B7801225340DBB29B
:10275000002B01D0002368E001210020FEF7A8FB38
:10276000031E01D1002360E00E243B191900002054
:10277000FEF7ECFA03001A000F203B18511E8A41A5
:102780001A703B181B78002B05D03B191B781A00D8
:1027900001231340E8D10F23FB181B78012253407B
:1027A000DBB2002B01D000233FE00D243B191900C0
:1027B0001320FEF7CBFA03001A000F203B18511E1E
:1027C0008A411A703B181B78002B05D03B191B78E7
:1027D0001A0007231340E8D00F23FB181B780122AF
:1027E0005340DBB2002B01D000231EE07B681900B0
:1027F0001E20FEF7FBFA031E01D1002315E0012184
:102800000B20FEF755FB031E01D100230DE07B6872
:102810001B88094A934204D07B681B88074A93426D
:1028200002D17B68044A1A8001231800BD4605B016
:1028300090BDC04694020020FE1F0000FF1F000054
:10284000002243088B4274D303098B425FD3030AEF
:102850008B4244D3030B8B4228D3030C8B420DD302
:10286000FF22090212BA030C8B4202D31212090290
:1028700065D0030B8B4219D300E0090AC30B8B42CE
:1028800001D3CB03C01A5241830B8B4201D38B037C
:10289000C01A5241430B8B4201D34B03C01A524121
:1028A000030B8B4201D30B03C01A5241C30A8B4264
:1028B00001D3CB02C01A5241830A8B4201D38B024F
:1028C000C01A5241430A8B4201D34B02C01A5241F3
:1028D000030A8B4201D30B02C01A5241CDD2C30965
:1028E0008B4201D3CB01C01A524183098B4201D3E1
:1028F0008B01C01A524143098B4201D34B01C01ACC
:10290000524103098B4201D30B01C01A5241C30843
:102910008B4201D3CB00C01A524183088B4201D3B2
:102920008B00C01A524143088B4201D34B00C01A9E
:102930005241411A00D20146524110467047FFE70A
:1029400001B5002000F0F0F802BDC0460029F7D024
:1029500076E7704703460B437FD4002243088B423F
:1029600074D303098B425FD3030A8B4244D3030B16
:102970008B4228D3030C8B420DD3FF22090212BADB
:10298000030C8B4202D31212090265D0030B8B4257
:1029900019D300E0090AC30B8B4201D3CB03C01A41
:1029A0005241830B8B4201D38B03C01A5241430B1C
:1029B0008B4201D34B03C01A5241030B8B4201D30C
:1029C0000B03C01A5241C30A8B4201D3CB02C01A77
:1029D0005241830A8B4201D38B02C01A5241430AEF
:1029E0008B4201D34B02C01A5241030A8B4201D3DE
:1029F0000B02C01A5241CDD2C3098B4201D3CB0185
:102A0000C01A524183098B4201D38B01C01A524133
:102A100043098B4201D34B01C01A524103098B4237
:102A200001D30B01C01A5241C3088B4201D3CB0022
:102A3000C01A524183088B4201D38B00C01A524105
:102A400043088B4201D34B00C01A5241411A00D2B5
:102A500001465241104670475DE0CA0F00D049421E
:102A6000031000D34042534000229C4603098B428E
:102A70002DD3030A8B4212D3FC22890112BA030A16
:102A80008B420CD3890192118B4208D38901921198
:102A90008B4204D389013AD0921100E08909C3091D
:102AA0008B4201D3CB01C01A524183098B4201D31F
:102AB0008B01C01A524143098B4201D34B01C01A0A
:102AC000524103098B4201D30B01C01A5241C30882
:102AD0008B4201D3CB00C01A524183088B4201D3F1
:102AE0008B00C01A5241D9D243088B4201D34B000C
:102AF000C01A5241411A00D20146634652415B104E
:102B0000104601D34042002B00D54942704763462E
:102B10005B1000D3404201B5002000F005F802BD73
:102B20000029F8D016E770477047C0468446080071
:102B30006146FFE71FB500F055FB002801D40021D6
:102B4000C8421FBD10B500F0E1FA4042013010BD8F
:102B500010B500F047FB002801DB002010BD01206C
:102B600010BDC04610B500F03DFB002801DD00207F
:102B700010BD012010BDC04610B500F0EDFA0028D0
:102B800001DC002010BD012010BDC04610B500F0D2
:102B9000E3FA002801DA002010BD012010BDC04674
:102BA000F0B5C64643025B0A4E0245004F00DA000C
:102BB000C40F9C46700A904600B52D0E3F0EC90FFB
:102BC000B6098C424BD0EA1B002A36DD002F61D0BB
:102BD000FF2D00D1ADE08023DB041E431B2A00DC67
:102BE000D3E001204346181A430100D48CE0800151
:102BF0008709380000F0BEFE05388740854200DCBA
:102C0000B6E02D1AB3483840430704D00F230340E1
:102C1000042B00D00430430100D478E06A1CFE2D60
:102C200065D08001430A9C46D2B26346D005184362
:102C3000E407204380BCB846F0BD002A35D07A1B9B
:102C4000002D00D0AFE04346002B00D1A7E0531E7B
:102C5000012A00D12FE1FF2A69D01A00AAE0E91B5E
:102C6000002970DD002F37D0FF2D62D08023DB04D8
:102C70001E431B2900DCB0E001204044430143D542
:102C80000135FF2D33D00123934A03404008104003
:102C90001843B9E7002E00D183E0511E012A00D16C
:102CA000D8E0FF2A45D00A0098E7FE276A1C1742A1
:102CB00000D086E0002D00D0B7E04346002B00D1C5
:102CC000F3E00022002EB0D0981B430100D4FAE0BC
:102CD00043460C00F01A97E7002E00D1C8E04A1EC8
:102CE000012900D1AEE0FF2923D01100C1E7002364
:102CF000FF229C4699E7FE216A1C114277D0FF2AE9
:102D0000F5D0150046447008430700D07EE7C3089D
:102D1000FF2D0ED05B025B0A9C46EAB285E7002ECF
:102D200007D08022D203134203D0104201D10C00FD
:102D30000300002BDBD08020C00318434002430A6D
:102D40009C46FF2271E70029D5D07A1B002D60D167
:102D50004346002B24D0531E012A73D0FF2AE7D00C
:102D60001A001B2A00DC85E001203D00801985E760
:102D700020233A00451B38000135EA405D1BA8407E
:102D8000431E9841002510433EE7202330009B1A44
:102D900031009840D140431E9841084322E70C007F
:102DA00003001500B4E7FF2FC1D080234046DB04A9
:102DB000184380461B2A51DD01200C003D00301ACB
:102DC00012E743469F1B7B012BD4002F00D010E756
:102DD0000023002400229C4627E7202332003000F5
:102DE000CA40591A8840431E9841104345E7002DB8
:102DF0004AD14346002B63D00022002E00D114E7B5
:102E000030004044430100D47EE7324B0135184086
:102E10007AE7FF2F8CD080234146DB041943884694
:102E20009FE743460C00F71AE3E64246002A00D02B
:102E300075E7002E00D07AE78023DB0300249C4650
:102E4000FF22F2E6300040440125430100D45BE755
:102E5000022518E743460125981BC5E62023444672
:102E60004046D4409A1A9040431E98412043A4E71C
:102E70000D004DE7202341464046D1409A1A90402C
:102E8000431E9841084370E74246002A00D14FE7AD
:102E9000002E00D14DE78022D203134200D148E733
:102EA000104200D045E7030043E7002E90D00C000D
:102EB00084460022B9E643460C00F01A013593E639
:102EC00084460022B1E6002800D01DE7002300243C
:102ED0009C46AAE6FFFFFFFBFFFFFF7DF0B54F46D4
:102EE0004646D6464502C0B547000C1C6D0A3F0E4B
:102EF000C60F002F00D170E0FF2F00D175E0EB006E
:102F00008025ED041D43002399469A467F3F6002C9
:102F1000430A984663001B0EE40F002B4ED0FF2B94
:102F200046D04246D0008022D2040243904600227E
:102F30007F3B3100FF1A4B466140C9B213430F2B50
:102F400000D9B5E06E489B00C3589F4600239846C1
:102F50002600454692465346022B00D189E0032BBA
:102F600000D19EE0012B18D03B007F33002B69DDA0
:102F70006A0704D00F222A40042A00D004352A010F
:102F800003D5604B1D403B008033FE2B00DD70E01D
:102F9000AD016D0AD8B202E00E0000200025C00588
:102FA0002843F6073043E0BCBA46B146A846F0BD18
:102FB0004346002B3FD10222FF3F03E04346002B54
:102FC0002DD1012231004B466140C9B213430F2B72
:102FD00034D84D489B00C3589F46002D13D104237D
:102FE0009946033B00279A4691E7002D05D1082317
:102FF0009946063BFF279A4689E70C239946093BE9
:10300000FF279A4683E7280000F0B4FC7627431F89
:103010009D4000237F4299469A463F1A77E74046F3
:1030200000F0A8FC4246431F9A4076235B4290463C
:103030001B1A00227DE7FF2303227AE70E00FF2000
:103040000025ACE70120C01A1B28A6DC9E372A0009
:10305000BD40C2406B1E9D4115436B0704D00F233A
:103060002B40042B00D004356B0144D501200025F2
:1030700095E7FF20002592E780250026FF20ED033D
:103080008DE7002398468020C003054209D04346BF
:10309000034206D1454605436D022600FF206D0A16
:1030A0007DE78020C00305436D02FF206D0A76E7AF
:1030B00042466B015001834219D21B220025013F79
:1030C00001261C006D005B00002C01DB984201D83A
:1030D0001B1A3543013A002AF3D15A1E93411D436E
:1030E0003B007F330E00002B00DD41E7AAE71A22E8
:1030F00001251B1AE4E7AD0100206D0A4FE7C04629
:10310000188F0008FFFFFFF7588F000870B54200C6
:1031100045024E024C00C30F6D0A0120120E760AC2
:10312000240EC90FFF2A06D0FF2C03D0A24201D1E2
:10313000B54206D070BD002DFCD1FF2CFAD1002E77
:10314000F8D18B4206D00120002AF3D12800431E7B
:103150009841EFE70020EDE770B5420045024E02CE
:103160004C00C30F6D0A120E760A240EC80FFF2AF8
:103170001BD0FF2C0ED0002A1BD1002C01D1002E19
:103180001CD0002D0CD083421CD00221581E0840B8
:10319000013870BD002E22D1002AF4D1002DF2D1C9
:1031A0000028F6D101204042F3E7002D17D1FF2C73
:1031B000F0D0002CE7D1002EE5D1E6E70020002D6D
:1031C000E7D0E2E7A24205DCEADBB54202D8E7D36A
:1031D0000020DEE74342584140000138D9E7022091
:1031E0004042D6E770B5420045024E024C00C30F84
:1031F0006D0A120E760A240EC80FFF2A0BD0FF2C80
:103200000DD0002A1FD1002C16D1002E14D1002081
:10321000002D10D009E0002D0CD1FF2C13D1002E71
:1032200008D1002A08D0834212D00221581E08403B
:10323000013800E0022070BD002DF4D10028FAD141
:1032400001204042F7E7002CEDD1002EEBD1ECE756
:10325000A24205DCF2DBB54202D8EFD30020EAE758
:103260004342584140000138E5E7C046F0B54F46BB
:103270004646D64644024500C0B5640A0F1C2D0ED2
:10328000C60F002D00D18DE0FF2D00D192E000236C
:10329000802099469A46E400C00404437F3D7802AA
:1032A000430A98467B001B0EFF0F002B00D170E0F5
:1032B000FF2B00D186E04246D00080227F3BED18F4
:1032C0000023D204024390469C4631004B4679408D
:1032D000681C0F2B1CD8764A9B00D3589F46390098
:1032E0004446E2465346022B0FD0032B00D1D7E0D1
:1032F000012B37D100200024C0052043C907084313
:10330000E0BCBA46B146A846F0BDFF200024F3E772
:10331000260C2404220C44462404240C4346270093
:103320001B0C574374435A435E4312193B0C9B18C2
:103330009C4203D980225202944666443F041A04F8
:103340003F0CD2199401671EBC411B0C920E9B19B5
:1033500014439B011C431B0100D49BE00123620822
:103360001C40144302007F32002A64DD630704D04E
:103370000F232340042B00D00434230103D5020083
:103380004C4B80321C40FE2ABFDCA401640AD0B240
:10339000B2E74346002B3DD14A4601331A439146DA
:1033A0009C4692E7002C29D104239946033B002533
:1033B0009A4674E7002C1BD108239946063BFF254B
:1033C0009A466CE74346FF35002B0BD102234A4651
:1033D0001A4391469C4678E753463100022B00D0B1
:1033E00083E792E703234A461A4391469C466CE7DB
:1033F0000C239946093BFF259A4650E7200000F030
:10340000B9FA7625431F9C4000236D4299469A469F
:103410002D1A44E7404600F0ADFA4246431F9A4059
:1034200000232D1A90469C46763D4EE780240021CD
:10343000FF20E40360E701239B1A1B2B00DD59E703
:1034400022009E30DA4084401300621E94411C43E7
:10345000630704D00F232340042B00D004346301FE
:103460001AD50120002447E78020C003044209D078
:103470004346034206D14446044364023900FF2018
:10348000640A39E78020C003044364023100FF204E
:10349000640A31E7280065E7A4010020640A2BE7ED
:1034A0008020C00304436402FF20640A24E7C0466E
:1034B000988F0008FFFFFFF7F8B5CE464746430256
:1034C0005B0A4E02DA009446720A914645004A00B1
:1034D00080B52D0E1F00C40F120EC90FB609FF2AAA
:1034E0005BD0012041408C4239D0A81A00285ADD17
:1034F000002A6AD0FF2D00D1D9E08022D2041643E1
:103500001B2800DCE9E001206346181A430100D4BF
:10351000B4E080018709380000F02CFA05388740B4
:10352000854200DCCCE02D1AB5483840430704D072
:103530000F230340042B00D00430430100D4A0E04B
:103540006A1CFE2D00D18DE08001470AD2B2D00561
:103550003843E4072043C0BCB946B046F8BDA81ABA
:103560008046002845DD002A70D0FF2D00D19EE066
:103570008023DB041E4343461B2B00DCD2E00120EA
:10358000604443017AD50135FF2D6BD001239D4A5C
:103590000340400810401843C8E7002E20D08C425A
:1035A00023D02800FF38002839D0571B002D00D029
:1035B0009DE06346002B00D1DBE07B1E012F00D194
:1035C0000DE1FF2F71D01F0098E0002E00D1A7E081
:1035D000421E012800D1E6E0FF2868D010008FE7E6
:1035E00001204140A14200D07FE7FF2040428046B9
:1035F000A8444046002838D0511B002D00D1AEE031
:10360000FF2A00D1DFE080236046DB0418438446B4
:103610001B2900DCD9E0012015008019B1E7FE204C
:103620006A1C104271D1002D00D0A6E06346002B29
:1036300000D1D9E00022002E00D188E7981B430179
:1036400000D4E1E063460C00F01A6FE7002E00D1D1
:10365000B7E00200013A012800D19CE0FF2826D003
:10366000904688E7FF22002771E7FE206A1C10427F
:1036700064D0FF2AF6D0150066447008430700D0D6
:1036800056E7C308FF2D12D05B025F0AEAB25EE77D
:103690006246002A00D196E0002E08D08022D20394
:1036A000134204D04846104201D10C004B46002B77
:1036B000D8D08027FF031F437F02FF227F0A46E7FF
:1036C00020233A00451B38000135EA405D1BA84025
:1036D000431E98410025104328E720231B1A32007F
:1036E0009E40C2403000431E984110430CE7FF2A21
:1036F000DBD080236046DB04184384461B2F56DD55
:1037000001200C001500301A00E763469F1B7B0167
:103710003DD4002F00D0FEE600240022002716E74B
:103720000500AFE7320043464146DA4020235B1AEA
:103730009E403000431E9841104321E7002DA7D141
:103740006346002B59D00022002E00D1FFE6300046
:103750006044430192D52A4B013518408EE76346F9
:10376000002B47D04B1E012915D0FF292BD0190063
:103770004EE70C004B463D0084E76246002A8BD1A1
:10378000002E92D180270024FF22FF03DFE663464C
:103790000C00F71ABFE6300060440125430100D455
:1037A0006CE70225F2E663460125981BAEE620236E
:1037B00064466046FC40DF1BB840431E98412043EE
:1037C0009FE705005EE74B4671E7202365466046AC
:1037D000CD40591A8840431E984128431CE7634650
:1037E0000C000125F01A91E6002E95D00C004F46F2
:1037F0000022ACE64B460D0044E74F460022A6E609
:10380000FFFFFFFBFFFFFF7D002800D036E700240D
:1038100000279CE641024200C30F490A0020120E15
:103820007E2A03DD9D2A02DD094A98187047802010
:1038300000040143952A07DC9620821AD1404842B1
:10384000002BF3D10800F1E7963A9140F7E7C04624
:10385000FFFFFF7FF8B5002813D0C317C6185E40DE
:10386000C40F300000F086F89E2305001B1A962B2B
:103870000FDC082801DD083DAE407602760AD8B29A
:1038800002E0002400200026C0053043E407204366
:10389000F8BD992B0CDD05223100121AD1400A0027
:1038A000010030001B318840411E88410243160050
:1038B000052D12DC31000D4F3940720709D00F2061
:1038C0003040042805D004314A0102D59F233940F5
:1038D0005B1B89014E0AD8B2D6E76A1F96403100B9
:1038E000024F39407207F4D0E9E7C046FFFFFFFB03
:1038F00070B5051E0ED000F03DF89E2304001B1A83
:10390000962B0CDC082801DD083CA5406D026D0AF1
:10391000D8B201E000200025C005284370BD992BD6
:1039200009DD020029001B3291404A1E9141052207
:10393000121AD5400D43052C12DC29000C4E3140E3
:103940006A0709D00F202840042805D004314A0115
:1039500002D59F2331401B1B89014D0AD8B2DBE7FA
:10396000621F95402900024E31406A07F4D0E9E712
:10397000FFFFFFFB1C2101231B04984201D3000C15
:1039800010391B0A984201D3000A08391B099842D2
:1039900001D30009043902A2105C40187047C046E8
:1039A0000403020201010101000000000000000008
:1039B000F7B58B8905000C001A075FD44A68002A06
:1039C00004DC0A6C002A01DC0020FEBDE76A002F3F
:1039D000FAD0002280212E682A601A0049010A408C
:1039E0000B4234D0606DA3895B0706D56368C01AAB
:1039F000636B002B01D0236CC01A0200216A0023E4
:103A00002800E76AB847A189431C06D12B681D2B03
:103A100031D82C4ADA40D3072DD5002363602369BF
:103A20002360CB0405D5431C02D12B68002B00D1A9
:103A30006065616B2E600029C6D023004433994233
:103A400002D0280000F004FA00206063BDE70123E3
:103A50002800216AB847431CC5D12B68002BC2D06F
:103A60001D2B01D0162B01D12E60ADE74023A2897A
:103A70001343A381A9E740230B43FAE70F69002F03
:103A8000A2D00A680F60D21B019200229B0700D1CE
:103A90004A69A260019B002B00DC95E73A002800F0
:103AA000019B216AA66AB047002806DC402301205A
:103AB000A28940421343A38187E7019B3F181B1A49
:103AC0000193E7E7010040200B6970B505000C0089
:103AD000002B02D10025280070BD002804D0836986
:103AE000002B01D100F0C8F8144B9C421BD16C682C
:103AF0000C22A35E002BEDD0626ED20704D49B058E
:103B000002D4A06D00F094F928002100FFF750FFC7
:103B1000636E0500DB07DED4A3899B05DBD4A06DB3
:103B200000F08CF9D7E7064B9C4201D1AC68DFE787
:103B3000044B9C42DCD1EC68DAE7C046F88F000801
:103B400018900008D88F0008010010B5002805D192
:103B5000054B0649186800F046F910BD044B18687B
:103B6000FFF7B2FFF9E7C04638900008C93A0008ED
:103B700004000020002310B504000360436083604C
:103B8000818143661900C281036143618361082218
:103B90005C3000F054F9054B24626362044BA3626D
:103BA000044BE362044B236310BDC046B14A0008D6
:103BB000DD4A0008154B0008414B000810B50249CA
:103BC00000F011F910BDC046C93A0008436E10B5A7
:103BD000DB0705D483899B0502D4806D00F028F9AA
:103BE000002010BD436E10B5DB0705D483899B050B
:103BF00002D4806D00F022F9002010BD70B5682558
:103C00004A1E55430E002900743100F08DF9041E40
:103C100008D000212A00016046600C30A0606832A4
:103C200000F00DF9200070BD10B5024B1868FFF7C9
:103C3000C5FF10BD3890000810B5024800F0F8F834
:103C400010BDC046A202002010B5024800F0F6F8F0
:103C500010BDC046A202002010B5024800F0E8F8EE
:103C600010BDC046A302002010B5024800F0E6F8DF
:103C700010BDC046A302002013B50400FFF7ECFFFF
:103C8000A369002B02D0FFF7EFFF13BDA364E36429
:103C90002365134B134A1B68A2620193A34201D10F
:103CA0000123A361200000F01FF86060200000F0F5
:103CB0001BF8A060200000F017F800220421E0604B
:103CC0006068FFF757FF01220921A068FFF752FF44
:103CD00002221221E068FFF74DFF0123A361D2E722
:103CE00038900008BD3B0008F8B50700FFF7A4FFB7
:103CF0001F4B1E68B369002B02D13000FFF7BCFFD9
:103D00004836B4687368013B04D53368002B22D071
:103D10003668F6E70C22A55E002D1AD12000154B5F
:103D20005830E360656600F07FF8FFF78DFF2000F4
:103D3000082229002560A560656025616561A5618F
:103D40005C3000F07CF86563A563A564E564200041
:103D5000F8BD6834D7E704213800FFF74FFF041E91
:103D60003060D5D1FFF770FF0C233B60EFE7C04612
:103D7000389000080100FFFF10B5FFF75DFF034B0F
:103D80000349186800F014F810BDC0460400002074
:103D9000CD3B000810B5044B0449186800F008F842
:103DA000FFF752FF10BDC04604000020E53B0008AD
:103DB000F7B54830040000260191A5686768013F07
:103DC00004D52468002CF8D13000FEBDAB89012B4E
:103DD00007D90E22AB5E013303D02800019B984720
:103DE00006436835EBE7F7B50400060000270191AC
:103DF00048346368A5680093009B013B009304D599
:103E00002468002CF5D13800FEBDAB89012B08D900
:103E10000E22AB5E013304D029003000019B98478D
:103E200007436835E8E77047704770477047704749
:103E300070470120704701207047704770470300AA
:103E40008218934200D1704719700133F9E70000DE
:103E500070B50500002910D00C1F2368002B00DA74
:103E6000E418280001F0D0FE1D4A1368002B05D18C
:103E700063601460280001F0CFFE70BDA34208D932
:103E8000216860188342F3D118685B68411821608B
:103E9000EEE71A005B68002B01D0A342F9D9116844
:103EA0005018A0420BD120680918501811608342A5
:103EB000E0D118685B68411811605360DAE7A042EE
:103EC00002D90C232B60D5E721686018834203D107
:103ED00018685B684118216063605460CAE7C04697
:103EE000A802002070B50F4E0D00316804000029B3
:103EF00002D100F0CBFD30602900200000F0C6FDAB
:103F0000431C0AD00323C51C9D43A84207D0291A8D
:103F1000200000F0BBFD431C01D101256D422800AB
:103F200070BDC046AC020020F7B50322CB1C934302
:103F3000083306001F000C2B32D20C27B94231D8AF
:103F4000300001F061FE324D2B681C00002C2ED198
:103F500039003000FFF7C6FF0400431C1ED12C6857
:103F60002500002D4AD123682900E3183000019371
:103F700000F08CFD019B834243D123680337FF1A75
:103F800003239F4308370C2F00D20C273900300041
:103F9000FFF7A8FF431C34D02368DF19276013E024
:103FA000002BCBDA0C23002533602800FEBD2268ED
:103FB000D11B20D40B2917D9E2192760A34211D1B4
:103FC0002A606368116053603000250001F024FE10
:103FD00007220B35231D9543EA1A9D42E5D05B1B52
:103FE000A350E2E75A60ECE76268A34201D12A607D
:103FF000EAE75A60E8E723006468A7E72C006D68E9
:10400000AFE70C233000336001F006FECDE7C04679
:10401000A8020020F0B51E00002314008BB09E42C1
:1040200004DA8021090673181E002D23129A149FAA
:104030001370202303229F43462F07D03B00453BAC
:1040400059424B411099013ACB18109309AB049394
:1040500008AB0393139B00920293109B22000193E1
:10406000330000F005FF0500472F02D1119BDB074D
:1040700028D5109BEB180793462F14D12B78302BA3
:104080000CD1002200232000310003F025F8002885
:1040900004D10123109A9B1A139A1360139B079A59
:1040A0001B68D3180793002200232000310003F07F
:1040B00013F8002801D0079B09933022099B079928
:1040C0008B4206D32800099B159A5B1B13600BB02B
:1040D000F0BD591C09911A70F0E7F0B5831C87B048
:1040E000039305000C002B230270002901DA4C42D7
:1040F00002336B70092C31DD0A2704ABDE1D200072
:1041000039000196FEF70CFD013E30312000317080
:1041100039000294FEF71EFC029B0400632BEEDCC8
:10412000019B30349A1E13000399147004A80730C1
:1041300098420ED804AB073300209A4204D804AB4F
:104140000930C018019BC01A039B1818401B07B008
:10415000F0BD1878013308700131E7E73023E41827
:10416000AB70281DEC70F1E7F0B595B00C0009922A
:104170001E001A9D070001F097FC036818000C93BD
:1041800000F0E4FC00231293237E07220A932368A5
:104190000E900D930D992B68C90547D59B18934335
:1041A0001A0008322A601A685B68A264E36401227C
:1041B000A36CE56C0B936B005B080F930B98A74BFC
:1041C0000F99524204F0F2FC002831D10122A34B96
:1041D0000B980F99524202F08FFF002828D100223D
:1041E000002329000B9802F07DFF002803D0230054
:1041F0002D2243331A700A9B994D472B00D9994DB4
:1042000003230D9A236101339A43002322600B9309
:10421000099B21003800009613AA00F0E7F9431C1F
:1042200000D0A2E00120404215B0F0BD0733B6E750
:104230000B9A2B001000290004F0B8FC00280BD0CA
:10424000002D03DA23002D2243331A700A9B864D7A
:10425000472BD5D9854DD3E720220A99636891432E
:104260000F915A1C49D10733636080230D9ADB00FC
:1042700013430022069212AA05920A9A08A90492F0
:1042800011AA0392232223600193636852180292B9
:10429000009338002B000B9AFFF7BCFE0F9B050024
:1042A0001199472B08D1CB1C02DB6368994248DD8A
:1042B0000A9B023BDBB20A930A9B652B24D82000A1
:1042C0001A00013950301191FFF707FF129A0B9035
:1042D00013182361012A02DC2268D20701D50133B9
:1042E0002361232308AA9B181B78002B00D18FE79A
:1042F00023002D2243331A708AE70F9A472AB4D13C
:10430000002BB2D10133AFE70A9B662B1BD1636848
:1043100000290DDD2161002B02D12268D20702D5D0
:10432000013359182161119BA36500230B93D8E732
:10433000002B03D101222168114200D09A1C226176
:10434000F1E767230A93119B129A934206DB2268D6
:104350002361D207E7D501332361E4E70121002B74
:1043600001DC4918C91A5218E9E72268530507D435
:1043700023692A0038000999B047431C28D151E726
:104380000A9B652B00D8E1E0A06CE16C00220023C1
:1043900002F0A2FE002831D001233800344A0999E6
:1043A000B047431C00D13DE7119B129A934202DBB8
:1043B0002368DB070CD538000E9B0C9A0999B0478F
:1043C0000025431C00D12DE7129B013BAB420ADCC8
:1043D00023689B0700D506E1139BE068984200DB49
:1043E00022E7180020E722000123380009991A3239
:1043F000B047431C00D115E70135E5E7119B002BC1
:1044000038DC012338001A4A0999B047431C00D10F
:1044100008E7119B129A134302D12368DB07D7D513
:104420000E9B38000C9A0999B047431C00D1F9E65D
:1044300000230A93119B0A9A5B42934201DC129B70
:1044400097E722000123380009991A32B047431C2C
:1044500000D1E7E60A9B0133EBE7C046FFFFEF7FA1
:104460003C900008409000084490000848900008E4
:104470004C900008129AA36D0A929A4200DD0A93AA
:104480000A9B002B3CDC00230D930A9BDB43DB17CC
:104490000F93A36D0F9A0B930A9B13400B9AD31A99
:1044A0000D9A934234DC119B129A93423DDB2368B0
:1044B000DB073AD4129A0B9B1199D31A521A0A921B
:1044C0009A4200DD0A930A9B002B36DC0A9B0025EA
:1044D000DB43DB170B93119A129B0B999B1A0A9AD9
:1044E0000A409B1AAB4200DC72E72200012338002D
:1044F00009991A32B047431C00D193E60135EAE727
:104500000A9B2A0038000999B047431CBBD189E6B1
:1045100022000123380009991A32B047431C00D108
:1045200080E60D9B01330D93B3E70E9B38000C9A88
:104530000999B047431CBDD174E60B9B3800EA18BB
:1045400009990A9BB047431CC0D16BE6129B012B13
:1045500002DC01231A4234D001232A0038000999D1
:10456000B047431C00D15DE60E9B38000C9A0999B8
:10457000B047431C00D155E6A06CE16C002200233B
:1045800002F0AAFD00281AD1129B6A1C013B3800D8
:104590000999B047431C0ED144E62200012338009C
:1045A00009991A32B047431C00D13BE60135129BF2
:1045B000013BAB42F1DC22000B9B5032DAE60025D6
:1045C000F5E72A00E3E722000123380009991932B0
:1045D000B047431C00D125E60135E368139A9B1AC6
:1045E000AB42F0DCF8E60025F7E7C046F7B515006A
:1045F00001938A680B690C000090934200DA130063
:1046000022002B6043321278002A01D001332B6044
:1046100023689B0602D52B6802332B602268062391
:1046200017001F401A4227D0230043331B785A1E1D
:1046300093412268920630D4220001990098089E86
:104640004332B047431C25D0062320682A68E1681E
:1046500000250340042B03D18D1AEB43DB171D40CB
:10466000A3682269934201DD9B1AED180027BD4221
:1046700020D1002010E00137E3682A689B1ABB4272
:10468000D2DD2200012301990098089E1932B0471B
:10469000431CF0D101204042FEBD3020E1184331DF
:1046A000087021005A1C45310978A21843320233A0
:1046B0001170C1E72200012301990098089E1A3267
:1046C000B047431CE6D00137D1E70000F0B58BB00E
:1046D00006920A0043320793059004920A7E0C006A
:1046E000109B782A07D8622A09D8002A00D1C1E095
:1046F000582A00D18CE026004236327022E01000A9
:1047000063381528F7D802F0CDFC16001F00F6FF1D
:10471000F6FFF6FFF6FF1F00F6FFF6FFF6FFF6FFC7
:10472000A80036009A00F6FFF6FFB900F6FF360043
:10473000F6FFF6FF9E0026001A684236111D19602A
:10474000136833700123A7E0086819680A1D05067D
:104750000BD50D681A60002D03DA2D23049A6D42E3
:104760001370614B0A2703931BE00D681A60410622
:10477000F1D52DB2EFE70D681968081D18602E06F7
:1047800001D50D6803E06D06FBD50D68ADB2564B43
:10479000082703936F2A00D00237230000224333F7
:1047A0001A706368A360002B03DB04222168914325
:1047B0002160002D02D1049E002B0CD0049E280005
:1047C0003900FEF7C3F8039B013E5B5C33702B009E
:1047D00005009F42F3D9082F09D12368DB0706D5CE
:1047E00063682269934202DC3023013E3370049BEC
:1047F0009B1B2361079B210000930598069B09AA38
:10480000FFF7F4FE431C4CD1012040420BB0F0BD39
:1048100045310A70344A03921A68216820CA1A6026
:10482000080616D5CB0702D520231943216010278F
:10483000002DB2D1202322689A432260ADE72022C6
:1048400009680A4322602200782145321170274A04
:10485000E1E74806E6D5ADB2E4E71A680D68101D39
:104860004969186013682E0601D5196002E06D06CB
:10487000FBD519800023049E2361BBE71A68111D34
:104880001960166800213000626801F0A9F900285B
:1048900001D0801B6060636823610023049A137059
:1048A000A8E72369320006990598079DA847431C8D
:1048B000AAD023689B0715D4099BE0689842A5DA23
:1048C0001800A3E72200012306990598079E1932D4
:1048D000B047431C98D00135E368099A9B1AAB4254
:1048E000F0DCE9E70025F7E74E9000085F9000084C
:1048F0000EB417B5041E04D08369002B01D1FFF755
:10490000BBF906AB2000059AA168019301F0D2FE25
:104910001EBC08BC03B018470FB40B4B13B51C6882
:10492000002C05D0A369002B02D12000FFF7A4F9C9
:1049300005AB2000049AA168019301F0BBFE16BCF0
:1049400008BC04B01847C0460400002070B504003D
:104950000D00002804D08369002B01D1FFF78CF9EA
:1049600029002000A26801F0EBFF70BD084B70B574
:104970001C680500002C05D0A369002B02D1200083
:10498000FFF77AF929002000A26801F0D9FF70BD75
:104990000400002070B505000E00002804D08369D3
:1049A000002B01D1FFF768F9AB69AC68002B02D18D
:1049B0002800FFF761F92D4B9C4222D16C68636E91
:1049C000DB0705D4A3899B0502D4A06DFFF730FA5D
:1049D000A3891B0702D52369002B29D121002800B8
:1049E00000F030F9002823D001256D42636EDB070B
:1049F00005D4A3899B0502D4A06DFFF71FFA2800F8
:104A000070BD1B4B9C4201D1AC68D8E7194B9C424E
:104A1000D5D1EC68D3E70136A360002B04DAA26994
:104A20009A4216DC0A2914D023685A1C2260197095
:104A3000A3683178013B0029EDD1A360002B0FDA88
:104A4000280022000A3100F089F80A25431CCDD144
:104A5000CAE72200280000F081F8431CE8D1C3E730
:104A60000A2523685A1C22601D70BFE7F88F0008D2
:104A700018900008D88F000810B5034B0100186883
:104A8000FFF788FF10BDC04604000020002370B56A
:104A9000064D040008002B60FCF772F8431C03D19C
:104AA0002B68002B00D0236070BDC0469802002008
:104AB00070B50C000E25495F01F096FF002803DB5E
:104AC000636D1B18636570BDA389024A1340A381FF
:104AD000F9E7C046FFEFFFFF00207047F8B51F0061
:104AE0008B8905000C001600DB0505D50E23C95E79
:104AF0000022022300F0E0FFA389054A28001340AA
:104B0000A38132000E23E15E3B0000F087F8F8BD80
:104B1000FFEFFFFF70B50C000E25495F00F0CCFFE2
:104B2000A389421C03D1054A1340A38170BD802292
:104B300052011343A3816065F8E7C046FFEFFFFF12
:104B400010B50E23C95E00F0F5F810BD0023C25C5D
:104B50000133002AFBD1581E70470000F8B505004C
:104B60000E001400002804D08369002B01D1FFF748
:104B700083F8224B9C422ED16C68A369A360A38961
:104B80001B0732D52369002B2FD023682269F7B287
:104B9000981A6369F6B2834205DC21002800FEF70B
:104BA00093FF002827D1A3680130013BA36023684D
:104BB0005A1C22601F706369834204D0A389DB07FB
:104BC00007D50A2E05D121002800FEF77DFF002819
:104BD00011D13000F8BD0A4B9C4201D1AC68CCE742
:104BE000084B9C42C9D1EC68C7E72100280000F0BF
:104BF00029F80028C9D001267642EAE7F88F000894
:104C000018900008D88F000810B5034B0A00010067
:104C10001868FFF7A3FF10BD0400002070B5040062
:104C2000080011001A000023054D2B60FCF716F850
:104C3000431C03D12B68002B00D0236070BDC046FD
:104C400098020020374B70B51D6806000C00002D3F
:104C500005D0AB69002B02D12800FFF70DF8324BCD
:104C60009C420FD16C680C23E25E93B211072DD4E5
:104C7000D90611D409230120336037331343A381AC
:104C8000404270BD294B9C4201D1AC68EBE7284BF8
:104C90009C42E8D1EC68E6E75B0713D5616B00291D
:104CA00008D023004433994202D03000FFF7D0F8F7
:104CB000002363632422A3899343A38100236360B9
:104CC000236923600823A2891343A3812369002B4E
:104CD0000BD1A0218022A389890092000B4093422E
:104CE00003D02100300000F023FF0C22A35E01203E
:104CF0001A0099B2024003420FD00022A2606269FA
:104D00005242A261002022698242BAD10A06B8D575
:104D100040221343A3810138B3E7880700D46269B6
:104D2000A260EFE704000020F88F00081890000848
:104D3000D88F0008002370B5064D040008002B60D2
:104D4000FBF76DFE431C03D12B68002B00D02360C2
:104D500070BDC04698020020F0B506000B693269AC
:104D600087B0002003919A4265DB013B9C000093D1
:104D70000B00143305931B1904933300143302936F
:104D80001C19049B27681B6838005D1C29000193CF
:104D9000FDF756FD0190AF4224D30025AC460298A2
:104DA000059F08CF019A99B251431B0C53434919EF
:104DB0000A0C9B18026889B292B26244521A0168C6
:104DC0001D0C090C9BB2CB1A11145B18191492B26A
:104DD0001B041A43049B8C4604C0BB42E1D22368E7
:104DE000002B30D03000039901F0EEF9002821DBD0
:104DF00030000024019B03990133019314301431D6
:104E0000036820C99AB21419AAB2A21A1B0C2D0C5D
:104E100014145B1B1B191C1492B21B04134308C00F
:104E2000049B8B42ECD2009B029A9B00D3181A6819
:104E3000002A15D0019807B0F0BD2368002B06D1D9
:104E4000009B013B0093029B043CA342F5D3009BD3
:104E50003361C7E71A68002A06D1009A013A009226
:104E6000029A043B9A42F5D3009B3361E2E70000CB
:104E7000F0B59DB002920393029B039C08930994A2
:104E8000446A0700259D002C0ED1102000F094FEEE
:104E9000021E786204D1EA21C74BC84801F0B8FD70
:104EA000446084600460C4607B6A196800290AD089
:104EB0005A68012393404A608B60380000F0F8FE86
:104EC00000227B6A1A60039B002B20DA01232B60EF
:104ED000039B5B005B080993099DB94BB84A2B40C3
:104EE000934217D1B74B249A28031360029B000BFF
:104EF000184301D100F0BFFDB348269B0690002B5C
:104F000002D0B24B269A136006981DB0F0BD002364
:104F10002B60E1E7089B099C129313941298139954
:104F20000022002302F0D8F8041E09D00123249A9D
:104F30001360A74B0693269B002BE5D0A54BE1E71A
:104F40001AAB01931BAB00933800129A139B01F02C
:104F500063FA6E000590760D00D17CE012981399EB
:104F6000139B9D4A1B031B0B1A4311009B4B189468
:104F7000F61800229A4B03F087FA9A4A9A4B03F0EC
:104F800017F89A4A9A4B02F0D5F8040030000D0049
:104F900003F060FE974A984B03F00AF802000B00FA
:104FA0002000290002F0C6F804000D0003F01CFEEA
:104FB0000022029000232000290002F093F800282C
:104FC0000BD0029803F046FE2B00220002F084F87A
:104FD00043425841029B1B1A029301231693029BE2
:104FE000162B0FD812981399DA00844B9B181A6865
:104FF0005B6802F077F8002849D0029B013B0293DE
:10500000002316931A9B9E1B00230A933300013B37
:105010000D9304D501239B1B0A9300230D93029B40
:10502000002B36DB029A0D9B944663440D930023BC
:1050300015920E93229B0124092B64D8052B02DDC7
:105040000024043B2293229B981E032864D802F07C
:105050001FF8293836581A9B1B9A9E18684BF2186D
:10506000202A0FDD40239B1A9D40664B0298F318BF
:10507000D840284303F01EFE0123634C013E09196A
:10508000189376E7202302989B1A9840F2E716902F
:10509000B8E70A9B029A9B1A0A9353420E93002385
:1050A0001593C7E700230F93239B0C930793002BC3
:1050B00013DC01231A000C93079323920DE00123C4
:1050C000F1E70023239A0F939446029B63440C93C9
:1050D00001330793002B00DC01230022786A426031
:1050E00004321500143541689D4219D9380000F08A
:1050F0009BFD0690002817D1D5210200434B4900A3
:10510000CBE60123DEE700230F942293013B0C93AF
:10511000079300221333D0E701230F93023BF6E7F6
:10512000013141605200DCE77B6A069A1A60079BF6
:105130000E2B00D9EBE0002C00D1E8E0029B002B05
:1051400068DD1A000F212D4B0A40D2009B181D6804
:105150005E68029B1C1102231093029BDB050BD59A
:105160002B4B0C401A6A5B6A1298139902F01EFBD3
:105170000323089009911093254B1493002C08D118
:10518000089809992A00330002F010FB0890099151
:105190005CE001231C420BD0109B280001331093CC
:1051A000149B31001A685B6802F002FF05000E00D4
:1051B000149B64100833E0E77D9000089490000889
:1051C0000000F07F0F270000799000087C90000815
:1051D0004C9000084D9000080000F03F01FCFFFFDC
:1051E0000000F83F61436F63A787D23FB3C8608B6D
:1051F000288AC63FFB799F501344D33FD0910008C3
:105200003204000012040000000010FE1291000899
:10521000A891000802231093029B002B16D012982D
:1052200013995C420F23B64A2340DB00D3181A6857
:105230005B6802F0BDFE0126002308900991B14D84
:105240002411002C00D094E0002B9FD1169B002B42
:1052500000D19BE0089C099D002220002900AA4B58
:1052600001F040FF002800D190E0079B002B00D107
:105270008CE00C9B002B46DD029B002220002900C5
:105280005E1EA24B02F094FE109B08900991013320
:1052900010930C9B1098089C099D149303F0DAFC62
:1052A00022002B0002F084FE0022994B01F042FF05
:1052B00010901191109A119B08920993954A119B95
:1052C0009446634417930993149B002B61D10022E9
:1052D00020002900904B03F0D7F8089A179B040090
:1052E0000D0001F013FF002800D0AFE28B481199A8
:1052F000844661440B0020002900089A01F0F2FE68
:10530000002800D09FE2129B139C089309941B9BDA
:10531000002B00DA72E1029A0E2A00DD6EE1784B72
:10532000D2009B185C681B680A930B94239B002B8C
:1053300000DBF7E0079B002B00DDF3E000D082E20A
:105340000A980B990022744B02F032FE089A099BCE
:1053500001F0E6FE079E3500002800D059E2069BCA
:10536000069A0133089331231370029B0133029391
:1053700054E2344207D0109B013310932A686B68C3
:1053800002F016FE3300641008355AE7029E079BB0
:1053900080E7149B0F995A1E594BD2009B181A682C
:1053A0005B68002951D000205D4902F0FFF9089A9E
:1053B000099B03F069F8069A069B94461793149B81
:1053C00010901191634419932900200003F00CFC04
:1053D000149003F03FFC02000B002000290003F0B2
:1053E00053F8179B179A01330893149B040030332A
:1053F0001370109A119B0D0001F074FE002875D1F6
:1054000022002B000020404903F03EF8109A119B27
:1054100001F068FE002800D0D2E0199B089A934260
:1054200000D170E7109811990022384B02F0C0FDAE
:10543000364B1090119100222000290002F0B8FD97
:10544000089B04000D001793BEE70898099902F025
:10545000AFFD069A069B94460893149B10901191F9
:10546000634419932900200003F0BEFB179003F05A
:10547000F1FB02000B002000290003F005F8179B48
:10548000089A303313701300199A013304000D0089
:10549000089393422CD110981199069A149B944624
:1054A0006344002208931E4B01F044FE02000B00EF
:1054B0002000290001F02AFE002800D080E0109A88
:1054C000119B0020164902F0DFFF02000B002000B4
:1054D000290001F007FE002800D114E7089B1A00FC
:1054E000013A08921278302AF8D00893029655E0D3
:1054F0000022064B02F05CFD04000D00B2E7C0463E
:10550000D0910008A89100080000F03F000024405E
:1055100000001C400000C0FC000014400000C07CE3
:105520000000E03F079B069E013B9B190C93089CE3
:10553000099D0A9A0B9B2000290002F037F903F01D
:1055400053FB079003F086FB0A9A0B9B02F030FD99
:1055500002000B002000290002F096FF3300079A9A
:10556000013630321A700C9A08969A4239D10200EC
:105570000B0001F0DFFD0A9A0B9B04000D0001F007
:10558000C5FD00281BD10A9A0B9B2000290001F0C1
:10559000A3FD002802D0079BDB0710D43800059933
:1055A00000F086FB0023089A02981370249B0130B8
:1055B0001860269B002B00D1A6E41A60A4E4029E8A
:1055C000089B0893013B1A78392A06D1069A9A4219
:1055D000F7D13022069901360A701A7801321A7012
:1055E00084E70022AA4B02F0E3FC0022002304001F
:1055F0000D0001F071FD00289BD0CFE70F9D0E9E9E
:105600000A9C002D12D0229A012A66DC189A002AE0
:105610005DD0A04A9B180A9A0121D2180A920D9ACD
:105620003800D3180D9300F03FFC0500002C0EDD70
:105630000D9B002B0BDD0D9A2300944200DD13001F
:105640000A9AE41AD21A0A920D9AD31A0D930E9B53
:10565000002B1FD00F9B002B54D0002E11DD2900F2
:105660003200380000F0E6FC059A01000500380021
:1056700000F030FC05991490380000F019FB149BE1
:1056800005930E9B9A1BB34204D03800059900F095
:10569000D1FC05900121380000F006FC159B0600A6
:1056A000002B31DD1A000100380000F0C3FC229B02
:1056B0000600012B2DDD00230E93336903339B007D
:1056C000F318586800F0A8FB2023181A39E0362395
:1056D0001A9A0E9E0A9C9B1A9DE7079B5E1E0E9BC4
:1056E000B34207DB9E1B079B0A9C002B93DAE41A4C
:1056F000002390E70E9B159AF31AD3180E96159374
:105700000026F0E70E9AC0E700230E93229B012BA0
:1057100013DC00230E93089B002B0ED1099B1B0367
:105720000BD15D4B099A134207D00A9B01330A93B0
:105730000D9B01330D9301230E93159B0120002B2C
:10574000BBD10D9B1F22181803001340104246D0F6
:105750000132D21A042A3FDD1C22D31A0A9AE41815
:10576000D2180A920D9AD3180D930A9B002B05DDCF
:105770001A003800059900F0B9FC05900D9B002B2C
:1057800005DD31001A00380000F0B0FC0600169B61
:10579000002B26D03100059800F016FD002820DAF5
:1057A000029B0A22013B029338000023059900F076
:1057B000A3FA0F9B0590002B00D166E1002329007E
:1057C0000A22380000F098FA0C9B0500002B47DCF9
:1057D000229B022B0DDC43E0042AC6D013001C33AD
:1057E000BCE7079B002B35DC229B022B32DD079B9D
:1057F0000C930C9B002B0CD131000522380000F0DB
:105800007BFA06000100059800F0DEFC002800DDB0
:10581000A5E5239BDB430293069B089300243100FC
:10582000380000F045FA002D00D1B7E6002C05D075
:10583000AC4203D02100380000F03AFA29003800C9
:1058400000F036FAAAE600263500E2E70296149E3A
:10585000350084E50F9B002B00D1CEE0079B0C9315
:10586000002C05DD29002200380000F03FFC050077
:105870000E9B2800002B22D03800696800F0D4F974
:10588000041E0FD10200054B0549FFF706FBC04679
:1058900000002440330400000000F07F1291000853
:1058A000EA02000029002B690C319A1C92000C308E
:1058B00000F0A1F901222100380000F017FC069B3E
:1058C0000C9A0A93013B9B1801222C0005001493AB
:1058D000089B13400F9331000598FFF73DFA030032
:1058E000210030330D900598079300F06DFC2A00DD
:1058F0000E903100380000F083FCC36808901093CC
:1059000001230C93109B002B04D10100059800F09B
:105910005BFC0C903800089900F0CAF90A9B0C9ABD
:1059200001330893229B13430F9A13430CD1079B17
:10593000392B26D00E9B002B02DD0D9B31330793B4
:105940000A9B079A1A706AE70E9B002B04DB229AC7
:1059500013430F9A13431FD10C9B002BF0DD0599C5
:105960000122380000F0C2FB3100059000F02CFC51
:10597000002803DCE4D1079BDB07E1D5079B392B2B
:10598000DBD139230A9A1370089B0893013B1A78DC
:10599000392A68D00132D5E70C9B002B07DD079B25
:1059A000392BEED0079B0A9A0133137037E70A9B15
:1059B000079A1A70149B0A9A93423ED000230A2237
:1059C0000599380000F098F9002305900A2221007B
:1059D0003800AC4206D100F08FF904000500089BA6
:1059E0000A9378E700F088F92900040000230A22CE
:1059F000380000F081F90500F1E7079B0C930024C3
:105A000031000598FFF7A8F9069B303018550C9B1C
:105A100001340790A34207DD00230A2238000599CC
:105A200000F06AF90590EBE70C9B0120002B00DDEC
:105A300018000024069B1B180893059901223800C2
:105A400000F054FB3100059000F0BEFB00289BDC09
:105A500002D1079BDB0797D4089B0893013B1A7878
:105A6000302AFAD0DBE6069A9A428ED1029B0133A5
:105A70000293312399E7094B269A0693084B002A93
:105A800001D0FFF73FFAFFF73FFA0C9B002BB6DC83
:105A9000229B022B00DDACE6B1E7C0467090000807
:105AA00078900008F0307047004870475801002097
:105AB000004870475801002070B50400080011002C
:105AC0001A000023054D2B60FBF704F8431C03D19B
:105AD0002B68002B00D0236070BDC04698020020C8
