:020000040800F2
:1000000000200020B9000008ED03000801040008EA
:1000100000000000000000000000000000000000E0
:10002000000000000000000000000000ED030008D8
:100030000000000000000000ED030008ED030008D0
:10004000ED030008ED030008ED030008ED030008D0
:10005000ED030008ED030008ED030008ED030008C0
:1000600000000000ED030008ED030008ED030008A8
:10007000ED030008ED03000800000000ED03000898
:1000800000000000ED030008000000000000000078
:10009000ED03000800000000ED030008ED03000878
:1000A000ED030008ED030008ED03000879060008E1
:1000B000ED030008ED03000800F014F900F0D6F895
:1000C000E1235B02180000F02FFA62B6C04600F090
:1000D000C1F8024B180000F097FBFEE7C48F000840
:1000E00080B582B000AF7860C0467B685A1E7A60E7
:1000F000002BFAD1C046C046BD4602B080BD80B5D7
:1001000000AF0B4B0B4A5A60094B00229A60084B18
:1001100005221A60C046064B1A6880235B02134012
:10012000F9D0034B00221A60C046BD4680BDC046D0
:1001300010E000E0FF7C000080B582B000AF786086
:1001400001E0FFF7DCFF7B685A1E7A60002BF8D1D4
:10015000C046C046BD4602B080BD80B584B000AF89
:1001600078603A4B3A4A5A60384B394A9A60374B72
:1001700005221A6007E0354B1A6880235B021340A2
:1001800001D000235EE0A023DB051A6980235B0019
:100190001340F0D12D4B00221A602C4B2C4A5A6090
:1001A0002A4B2B4A9A60294B05221A6007E0274BFD
:1001B0001A6880235B02134001D0002342E0A02391
:1001C000DB051A6980235B001340F0D01F4B00222F
:1001D0001A601E4B1E4A5A601C4B1D4A9A601B4BEC
:1001E00005221A600023FB6021E0184B1A68802367
:1001F0005B02134001D0002324E0A023DB051A6931
:1002000080235B001340F0D107E0104B1A68802375
:100210005B02134001D0002314E0A023DB051A6920
:1002200080235B001340F0D0FB680133FB60FA6869
:100230007B689A42E1DB054B00221A60034B9B6806
:10024000034AD31A1800BD4604B080BD10E000E098
:10025000FFFFFF0080B500AF034B180004F02CFB3C
:10026000C046BD4680BDC046B48F000880B582B090
:1002700000AF164B7B60164B3B6007E07A68131D9E
:100280007B603B68191D396012681A603A68114B2F
:100290009A42F3D304E03B681A1D3A6000221A60C8
:1002A0003A680D4B9A42F6D30C4B3B6004E03B6836
:1002B0001A1D3A601B6898473A68094B9A42F6D370
:1002C000C046C046BD4602B080BDC046EC950008A1
:1002D00000000020CC01002024040020EC95000840
:1002E000EC95000880B500AF3B4B1A683A4B0121F2
:1002F0000A431A60C046384B1B6804221340FAD0E8
:10030000354B0122DA60C046334BDB680C221340C8
:10031000042BF9D1314B1A68304B02210A431A6081
:100320002E4B1A682D4B01210A431A602A4B9A6BF7
:10033000294B802149050A439A63294B80221201E7
:100340001A60C046264B5B6810221340FAD1224B3C
:10035000DA68214B23490A40DA601F4BDA681E4BEA
:100360008821C9030A43DA601B4A1B4BD268DA6052
:10037000194A194BD268DA60174A174BD268DA600B
:10038000154B1A68144B18490A401A60124B1A6828
:10039000114B802149040A431A60C0460E4B1A686B
:1003A00080239B041340F9D00B4BDA680A4B0321DE
:1003B0008A43DA60084BDA68074B03210A43DA60A4
:1003C000C046054BDB680C2213400C2BF9D1C0460C
:1003D000C046BD4680BDC04600100240002002401D
:1003E00000700040FFFF02FFFFFFFFFE80B500AF7F
:1003F000024B180000F008FAFEE7C046EC8F000838
:1004000080B500AF024B180000F0FEF9FEE7C046D1
:100410001C90000890B585B000AF78603960184B2B
:100420001B68002B02D101235B4224E00023FB6008
:100430000AE0FB685A1CFA603A68D418114B18009D
:1004400000F0ADF9030023707B68013B1A00FB68E4
:10045000934205D20B4B180000F0CCF9031EE8D1F3
:10046000FB68002B06D03A68FB68D31800221A708C
:10047000FB6800E000231800BD4605B090BDC046F3
:10048000A40200200C02002080B584B000AF786088
:100490003960224B1B68002B02D101235B4238E0FC
:1004A0007B683F2B0BDCC0461D4B180000F0A2F907
:1004B00003004022D21A7B689A42F5D302E002235D
:1004C0005B4226E00023FB600BE03A68FB68D31830
:1004D0001A78134B1100180000F030F9FB68013353
:1004E000FB607B68FA689A42EFD30E4B1B680822C8
:1004F00013400DD10B4B1A680A4B08210A431A60AE
:10050000074B180000F04BF903001A00054B9A62E4
:1005100000231800BD4604B080BDC046A4020020E0
:10052000580200200038014080B584B000AF7860E8
:1005300072B6C046454B00229A64444B9A6C434BBA
:100540005A64424B5A6C414B1A64414B00229A64E4
:100550003F4B9A6C3E4B5A643D4B5A6C3C4B1A6471
:100560003C4B01221A603C4B00221A603B4BDA6A7A
:100570003A4B01210A43DA62394BFB607968F8682B
:1005800002F0ACF90300FB60A023DB059A68A0230E
:10059000DB058021C9020A439A60A023DB055A6863
:1005A000A023DB052F490A405A60A023DB051B6806
:1005B0002D4A1A40A023DB05802109030A431A6053
:1005C000A023DB055A6AA023DB0540210A435A62B7
:1005D000A023DB051B68254A1A40A023DB058021E8
:1005E00089030A431A60A023DB055A6AA023DB05AE
:1005F0008021C9000A435A62184B5A6B174B80215D
:10060000C9010A435A631A4B1A68194B6C210A43F1
:100610001A60174B00225A60154B00229A60144B47
:10062000FA68DA60124B1A68114B01210A431A600A
:10063000104B1A680F4B802109050A431A6062B6F5
:10064000C046C046BD4604B080BDC0460C02002076
:1006500058020020A4020020A8020020001002403E
:100660000048E801FFFDFFFFFFFFF3FFFFFFCFFFA3
:100670000038014000E100E080B500AF084BDB69C5
:100680008022134001D000F025F8054BDB692022C1
:10069000134001D000F006F8C046BD4680BDC046FC
:1006A0000038014080B500AF074B5B6ADAB2074BF8
:1006B0001100180000F042F8031E02D0044B012282
:1006C0001A60C046BD4680BD003801400C020020C3
:1006D000A802002080B500AF164B180000F08AF881
:1006E000031E08D0134B180000F059F803001A003D
:1006F000114B9A621BE0104B1A680F4B08218A437A
:100700001A600D4BDB694022134005D00A4B1A6A70
:10071000094B40210A431A62074BDB6980221340D0
:1007200005D0054B9A69044B10210A439A61C046D3
:10073000BD4680BD580200200038014080B582B01F
:1007400000AF78600A00FB1C1A707B681A6C7B682B
:100750005B6C9A4205D17B689B6C002B01D0012316
:1007600019E072B6C0467B681B6C591C7A6811642C
:100770007A68F91C0978D1547B689B6C5A1C7B6899
:100780009A647B681B6C402B02D17B6800221A6440
:1007900062B6C04600231800BD4602B080BD80B5D9
:1007A00084B000AF78607B689B6C002B01D1002384
:1007B0001CE072B6C0467B685B6C591C7A68516459
:1007C0000F22BA187968CB5C13707B685B6C402B86
:1007D00002D17B6800225A647B689B6C5A1E7B683E
:1007E0009A6462B6C0460F23FB181B781800BD46FA
:1007F00004B080BD80B582B000AF78607B689B6C30
:100800001800BD4602B080BD80B582B000AF7860F0
:100810000B4B1B68002B09D101235B420BE07B686B
:100820005A1C7A6019000120FFF72EFE7B681B78A6
:10083000002BF4D100231800BD4602B080BDC04695
:10084000A402002080B582B000AF0200FB1D1A7028
:10085000FB1D19000120FFF717FEC046BD4602B080
:1008600080BD80B500AF044B1800FFF798FF030070
:100870001800BD4680BDC0460C020020B0B584B053
:1008800000AF786039601E4B1B68002B02D101233A
:100890005B4231E00023FB600B23FB1800221A703F
:1008A00017E0C046174B1800FFF7A4FF031EF9D04E
:1008B0000B257C19134B1800FFF771FF0300237001
:1008C000FB685A1CFA601A007B689B187A19127828
:1008D0001A703B68013BFA689A4204DA0B23FB1852
:1008E0001B780D2BDDD1FB68002B04DDFB687A68DB
:1008F000D31800221A70FB681800BD4604B0B0BDC2
:10090000A40200200C02002090B583B000AFFC1DB3
:10091000FFF7A7FF03002370FB1D1B781800FFF7EC
:1009200091FFFB1D1B781800BD4603B090BDB0B50C
:1009300084B000AF78603960214B1B68002B02D176
:1009400001235B4237E00023FB600B23FB180022EE
:100950001A701DE0C0461B4B1800FFF74BFF031E2B
:10096000F9D00B257C19174B1800FFF718FF03006F
:1009700023702C003B191B781800FFF763FFFB68FE
:100980005A1CFA601A007B689B183A1912781A7080
:100990003B68013BFA689A4204DA0B23FB181B7888
:1009A0000D2BD7D1FB68002B04DDFB687A68D318C8
:1009B00000221A70FB681800BD4604B0B0BDC046E6
:1009C000A40200200C02002080B582B000AF786045
:1009D000FEE780B582B000AF786001235B4218006B
:1009E000BD4602B080BD80B584B000AFF860B9608C
:1009F0007A60044B0C221A6001235B421800BD464A
:100A000004B080BDD002002080B500AF034B0B22A4
:100A10001A6001235B421800BD4680BDD002002051
:100A200080B582B000AF786039603B688022920167
:100A30005A6000231800BD4602B080BD80B500AFEB
:100A400001231800BD4680BD80B582B000AF78603C
:100A50003960044B16221A6001235B421800BD4620
:100A600002B080BDD002002080B582B000AF7860B7
:100A70003960044B1F221A6001235B421800BD46F7
:100A800002B080BDD002002080B584B000AFF86015
:100A9000B9607A6000231800BD4604B080BD80B5FF
:100AA00082B000AF786039603B68802292015A6062
:100AB00000231800BD4602B080BD80B582B000AFF3
:100AC000786001235B421800BD4602B080BD80B54E
:100AD00082B000AF7860044B02221A6001235B42AF
:100AE0001800BD4602B080BDD002002080B582B0A3
:100AF00000AF7860044B0A221A6001235B421800A1
:100B0000BD4602B080BDC046D002002080B582B094
:100B100000AF78607B68022B01D8012303E0044B0F
:100B200009221A6000231800BD4602B080BDC046ED
:100B3000D002002080B586B000AF7860124B7B6198
:100B4000124B3B61124B1B68002B02D1104B7A6990
:100B50001A600F4B1B68FB600D4B1A687B68D3183B
:100B60003A699A4205D20B4B0C221A6001235B4270
:100B700006E0074B1A687B68D218054B1A60FB68C1
:100B80001800BD4606B080BD2404002000100020DF
:100B9000B4020020D002002080B588B000AFF86019
:100BA000B9607A600023BB61FB68002B22D100236F
:100BB000FB611AE0FFF755FE03001A0017217B18AE
:100BC0001A70BB685A1CBA607A181278D2B21A70BE
:100BD000BB690133BB617B181B78DBB20A2B01D1E7
:100BE000BB690EE0FB690133FB61FA697B689A42DD
:100BF000E0DB05E0054B09221A6001235B4200E0BF
:100C0000BB691800BD4608B080BDC046D0020020B8
:100C100080B586B000AFF860B9607A60FB68013BD0
:100C2000012B11D800237B6109E0BB685A1CBA6014
:100C30001B781800FFF706FE7B6901337B617A6938
:100C40007B689A42F1DB05E0054B09221A6001231B
:100C50005B4200E07B681800BD4606B080BDC04620
:100C6000D002002080B500AF1F4BDA6A1E4B022174
:100C70000A43DA621C4B9A6B1B4B802189030A439F
:100C80009A631A4B1B681A4A1A40184B8021890133
:100C90000A431A60154B1A6A144B802149040A430F
:100CA0001A62124B1B68134A1A40104B802109022A
:100CB0000A431A600D4B1A6A0C4B802149050A43FE
:100CC0001A620A4B5A68094BC0210A435A60074B03
:100CD0009A68064BA021C9010A439A60064B074A4D
:100CE0001A61C046BD4680BD00100240000400509D
:100CF000FFCFFFFFFF3FFFFF00540040130F427084
:100D000080B582B000AF02003960FB1D1A70214B24
:100D100001221A601F4B204A5A601E4B5A681D4B15
:100D2000802189010A435A60C0461A4B9B690122FF
:100D30001340012BF9D1174BFA1D12789A62C04665
:100D4000144B9B6901221340012BF9D10120FFF7BD
:100D5000F3F9104B05221A600E4B104A5A600D4BE6
:100D60005A680C4B802189010A435A60C046094BDE
:100D70009B6904221340042BF9D1064B5B6ADAB25B
:100D80003B681A700120FFF7D7F901231800BD4610
:100D900002B080BD00540040520001025204010222
:100DA00080B582B000AF02003960FB1D1A702A4B7B
:100DB00001221A60284B294A5A60274B5A68264B51
:100DC000802189010A435A60C046234B9B69012256
:100DD0001340012BF9D1204BFA1D12789A62C046BC
:100DE0001D4B9B6901221340012BF9D10120FFF714
:100DF000A3F9194B05221A60174B194A5A60164B72
:100E00005A68154B802189010A435A60C046124B2B
:100E10009B6904221340042BF9D10F4B5B6A9BB2F0
:100E20001B029AB23B681A80C0460B4B9B69042296
:100E30001340042BF9D1084B596A3B681A888BB2CE
:100E4000D3189AB23B681A800120FFF775F9012385
:100E50001800BD4602B080BD00540040520001029F
:100E60005204020280B582B000AF0200FB1D1A706E
:100E7000BB1D0A1C1A70194B01221A60174B184A25
:100E80005A60164B5A68154B802189010A435A60F3
:100E9000C046124B9B6901221340012BF9D10F4B25
:100EA000FA1D12789A62C0460C4B9B6901221340CE
:100EB000012BF9D1094BBA1D12789A62C046074B33
:100EC0009B6901221340012BF9D10120FFF734F96E
:100ED00001231800BD4602B080BDC046005400404A
:100EE0005200020280B582B000AFFB1D00221A70D2
:100EF0003B1D00221A800A2003F07EFCFB1D190016
:100F0000C020FFF7FDFEFB1D1B781A00204B1100CF
:100F1000180003F05BFCFB1D1900C120FFF7F0FE79
:100F2000FB1D1B781A001B4B1100180003F04EFC30
:100F3000FB1D1900C220FFF7E3FEFB1D1B781A0002
:100F4000154B1100180003F041FC3B1D1900512006
:100F5000FFF726FF3B1D1B881A00104B11001800DD
:100F600003F034FC3B1D19006120FFF719FF3B1D06
:100F70001B881A000A4B1100180003F027FC094BCC
:100F8000180003F099FCC046BD4602B080BDC046C3
:100F90004090000854900008689000087C90000879
:100FA00090900008A490000880B582B000AFFA23AA
:100FB0005B001800FFF7C0F8124B180003F006FCA6
:100FC000114B124A1249134803F000FCFFF74AFE86
:100FD000FFF788FF01F0E2FA03001A00FB1D1A7008
:100FE000FB1D1B78002B04D00B4B180003F064FC96
:100FF00003E00A4B180003F05FFCC046BD4602B098
:1010000080BDC046A8900008B4900008C0900008B9
:10101000CC900008D89000081C910008409100086E
:1010200080B582B000AF3B1D00221A803B1D180026
:1010300001F0E6FA03001A00FB1D1A70FB1D1B7875
:10104000002B10D03B1D1B881A00094B1100180003
:1010500003F0BCFB074B1B689B68180003F044FAC5
:101060006420FFF769F8C046BD4602B080BDC046A7
:10107000609100081000002080B500AF594B9A6BBA
:10108000584B01210A439A63564BDA6A554B0121AA
:101090000A43DA62A023DB051B68032293431A008C
:1010A000A023DB0502210A431A60A023DB051B6A8B
:1010B0000F2293431A00A023DB0502210A431A6280
:1010C000A023DB055A68A023DB0501218A435A606F
:1010D000A023DB051B680C2293431A00A023DB0529
:1010E00008210A431A60A023DB051B6AF022934300
:1010F0001A00A023DB0520210A431A62A023DB0586
:101100005A68A023DB0502218A435A60A023DB052D
:101110001B68302293431A00A023DB0520210A43D9
:101120001A60A023DB051B6A2F4A1A40A023DB05A7
:10113000802189000A431A62A023DB055A68A02394
:10114000DB0504218A435A60A023DB051B68C0220B
:1011500093431A00A023DB0580210A431A60A023D1
:10116000DB051B6A214A1A40A023DB058021890187
:101170000A431A62A023DB055A68A023DB05082175
:101180008A435A608023DB0501229A628023DB05B3
:10119000174ADA628023DB0500225A638023DB05CD
:1011A00000229A638023DB050022DA638023DB05BB
:1011B00000221A648023DB050E4A9A618023DB0536
:1011C0000C4ADA618023DB050B4A1A628023DB05B7
:1011D0001A688023DB0501210A431A60C046BD4618
:1011E00080BDC04600100240FFF0FFFFFF0FFFFF71
:1011F000E7030000686800001111000080B582B0AC
:1012000000AF786039607A68FA239B009A4202DD69
:10121000FA239B007B607A68FA239B009A4201DAEA
:10122000224B7B603A68FA239B009A4202DDFA2344
:101230009B003B603A68FA239B009A4201DA1B4B01
:101240003B607B68FA22920094466344002B00DAEC
:1012500001335B101A008023DB055A637B68FA2296
:101260009200D31A00D501335B101A008023DB05EE
:101270009A633B68FA22920094466344002B00DA9A
:1012800001335B101A008023DB05DA633B68FA2226
:101290009200D31A00D501335B101A008023DB05BE
:1012A0001A64C046BD4602B080BDC04618FCFFFFB0
:1012B00080B584B000AFF860B9607A603B60FB68CD
:1012C000BA681A60FB683A689A60FB687A685A6084
:1012D000FB6800221A61FB680022DA60C046BD4646
:1012E00004B080BD90B585B000AF786039607B6890
:1012F0001C692D49386802F025F8031C191C201CB4
:1013000001F012FC031C1A1C7B681A617B68DB6805
:10131000191C386802F060F9031C2349181C01F0FD
:101320002FFE031CFB607B683A68DA607B681B69F0
:101330001E49181C01F0E4FB031E02D07B681B4A07
:101340001A617B681B691A49181C01F0C5FB031E52
:1013500002D07B68164A1A617B681B683968181CC2
:1013600001F0F0FF031C1C1C7B685A687B681B693A
:10137000191C101C01F0E6FF031C191C201C01F0B5
:10138000D3FB031C1C1C7B689B68F968181C01F0CC
:10139000D9FF031C191C201C01F0C6FB031C181CE0
:1013A000BD4605B090BDC0460AD7A33C00007A44B4
:1013B00000007AC490B585B000AF786039603968B4
:1013C000786801F0B1FB031CFB603968786802F0B3
:1013D00003F9031CBB60F86802F048FB0200FA2323
:1013E0009B009A4201DD334BFB60F86802F03EFB44
:1013F0000300314A934201DA304BFB60B86802F0D7
:1014000035FB0200FA239B009A4201DD294BBB60A9
:10141000B86802F02BFB0300274A934201DA274BFE
:10142000BB600021F86801F06BFB031E07D0244964
:10143000F86801F051FB031E01D0214BFB60002135
:10144000F86801F049FB031E07D01E49F86801F057
:1014500057FB031E01D01B4BFB600021B86801F055
:101460004FFB031E07D01649B86801F035FB031E79
:1014700001D0134BBB600021B86801F02DFB031EA7
:1014800007D01049B86801F03BFB031E01D00D4B9B
:10149000BB60F86802F0EAFA0400B86802F0E6FA05
:1014A000030019002000FFF7A9FEC046BD4605B0A5
:1014B00090BDC04600007A4418FCFFFF00007AC4CB
:1014C0000000C8420000C8C280B582B000AF2C4BFB
:1014D000DA6A2B4B01210A43DA62294B5A6B284BFB
:1014E000802189000A435A63A023DB051A68A023E0
:1014F000DB05FC2189010A431A60A023DB05DA68B9
:10150000A023DB051F490A40DA601F4B9B680122BC
:1015100013400BD01C4B9A681B4B02210A439A6064
:10152000C046194B9B6801221340FAD1164B9A68AA
:10153000154B802149050A439A6000237B6002E035
:101540007B6801337B607A68FA239B009A42F7DB61
:101550000D4B5A690C4B07210A435A610A4B9A6892
:10156000094B01210A439A60C046074B1B680122C0
:101570001340FAD0C046C046BD4602B080BDC0464A
:1015800000100240FFC0FFFF0024014080B584B07E
:1015900000AF0200FB1D1A70FB1D1B7801229A4050
:1015A0000F4B9A620E4B9A680D4B04210A439A60C6
:1015B0000C4BFB6007E0FB68013BFB60FB68002B0A
:1015C00001D13D2307E0064B1B6804221340F2D0F3
:1015D000034B1B6C9BB21800BD4604B080BDC046D7
:1015E00000240140A086010080B582B000AF020057
:1015F000FB1D1A70FB1D1B781A001F2313400122CC
:101600009A40034B1A60C046BD4602B080BDC0463A
:1016100000E100E080B500AF1D4BDA6A1C4B0121F0
:101620000A43DA62A023DB051A68A023DB05194907
:101630000A401A60A023DB051A68A023DB0580217D
:1016400009020A431A60A023DB051A6AA023DB05FE
:10165000120112091A62A023DB051A6AA023DB0516
:10166000A021C9050A431A62A023DB05DA68A0237A
:10167000DB058021C9010A43DA60A023DB05DA68B3
:10168000A023DB0504490A40DA60C046BD4680BDA0
:1016900000100240FF3FFFFFFF7FFFFF80B500AF5C
:1016A0001B4B5A6B1A4B20210A435A63194B0F22CA
:1016B0009A62184B184ADA62164B9A69154B174909
:1016C0000A409A61134B9A69124B802149000A43E0
:1016D0009A61104B1A6A0F4BA0210A431A620D4BF4
:1016E0001A6A0C4B10210A431A620A4BDA68094B3A
:1016F00004210A43DA601620FFF776FF054B1A68CB
:10170000044B01210A431A60C046BD4680BDC04655
:101710000010024000140140FFFF0000FFFCFFFF2B
:1017200080B500AF1B4B1B69042213402FD0194B0F
:101730009B6B1A00184B1A60A023DB051B698022E3
:10174000134004D1144B1A68144B1A6019E0124B61
:101750001A68124B1B689A4207DB0F4B1A680F4B33
:101760001B68D21A0E4B1A6008E00C4B1B680D4A1E
:10177000D21A094B1B68D218094B1A600A4B012276
:101780001A60044B1A69034B04218A431A61C0464C
:10179000BD4680BD00140140BC020020B8020020FC
:1017A000C4020020FFFF0000C802002080B582B004
:1017B00000AF7860FA235B00963B7A689A4203DABE
:1017C0002C4B00221A604EE0FA235B0095337A68B6
:1017D0009A4203DC274B01221A6044E0C8239B0095
:1017E00095337A689A4203DC224B02221A603AE06F
:1017F000214B95337A689A4203DC1E4B03221A6010
:1018000031E0AF23DB0095337A689A4203DC194B51
:1018100004221A6027E0194B95337A689A4203DC58
:10182000144B05221A601EE0FA23DB0095337A6818
:101830009A4203DC0F4B06221A6014E0104B9533DA
:101840007A689A4203DC0B4B07221A600BE00D4BBF
:1018500095337A689A4203DC064B08221A6002E04C
:10186000044B63221A60034B1B681800BD4602B08C
:1018700080BDC046C00200204C040000A406000049
:10188000FC080000280A000080B500AF204BDA6A8F
:101890001F4B01210A43DA621D4B9A6B1C4B8021BE
:1018A00089020A439A63A023DB051A68A023DB059B
:1018B000F0218A431A60A023DB051A68A023DB0508
:1018C000A0210A431A60A023DB051A6AA023DB05C6
:1018D00010490A401A62A023DB051A6AA023DB051F
:1018E0008821C9010A431A620B4B1622FF32DA60C3
:1018F000094B1A68084B0C210A431A60064B1A68F8
:10190000054B01210A431A60C046BD4680BDC04652
:1019100000100240FF00FFFF0044004080B582B08D
:1019200000AF0200FB1D1A70C046064BDB69802227
:101930001340FAD0034BFA1D12789A62C046BD4696
:1019400002B080BD0044004080B582B000AF786036
:1019500006E07B685A1C7A601B781800FFF7DEFFF0
:101960007B681B78002BF4D1C046C046BD4602B050
:1019700080BD90B587B000AF0200BB1D1A80002368
:101980007B61BB1D1B88002B1DD13020FFF7C6FFDC
:101990002BE0BB1D1B880A21180000F09BFF0B00E9
:1019A0009BB2DAB27B69591C79613032D1B208221C
:1019B000BA18D154BC1DBB1D1B880A21180000F0A9
:1019C00003FF03002380BB1D1B88002BE1D107E030
:1019D0000823FA187B69D3181B781800FFF79EFFBD
:1019E0007B695A1E7A61002BF2D1BD4607B090BDCB
:1019F00080B582B000AFFB1D00221A70FB1D1900DC
:101A0000C020FFF77DF9031E01D1002305E0FB1D77
:101A10001B78EE3B5A425341DBB21800BD4602B080
:101A200080BD80B582B000AFFB1D00221A70BB1DC7
:101A300000221A70BB1D19008920FFF761F9031EEF
:101A400001D1002378E0BB1D1B7801221343DAB2D9
:101A5000BB1D1A70BB1D1B7819008920FFF702FA05
:101A6000031E01D1002367E000218820FFF7FAF967
:101A700003001A00FB1D511E8A411A7001218020AB
:101A8000FFF7F0F903001A00FB1D1B781A40FB1D3D
:101A9000511E8A411A700121FF20FFF7E3F903006C
:101AA0001A00FB1D1B781A40FB1D511E8A411A703B
:101AB00000210020FFF7D6F903001A00FB1D1B7858
:101AC0001A40FB1D511E8A411A701D4B19009120AE
:101AD000FFF716F903001A00FB1D1B781A40FB1DC7
:101AE000511E8A411A7001210020FFF7BBF9030043
:101AF0001A00FB1D1B781A40FB1D511E8A411A70EB
:101B00000021FF20FFF7AEF903001A00FB1D1B7830
:101B10001A40FB1D511E8A411A7000218020FFF7D8
:101B2000A1F903001A00FB1D1B781A40FB1D511E72
:101B30008A411A70FB1D1B781800BD4602B080BD9B
:101B4000CC02002080B582B000AF0121FF20FFF75A
:101B500089F903001A00FB1D511E8A411A700021E9
:101B60000020FFF77FF903001A00FB1D1B781A40C5
:101B7000FB1D511E8A411A700021FF20FFF772F9E8
:101B800003001A00FB1D1B781A40FB1D511E8A41E1
:101B90001A7000210920FFF765F903001A00FB1DE8
:101BA0001B781A40FB1D511E8A411A70002110201B
:101BB000FFF758F903001A00FB1D1B781A40FB1DA4
:101BC000511E8A411A7000211120FFF74BF90300C2
:101BD0001A00FB1D1B781A40FB1D511E8A411A700A
:101BE00001212420FFF73EF903001A00FB1D1B789A
:101BF0001A40FB1D511E8A411A70FF212520FFF754
:101C000031F903001A00FB1D1B781A40FB1D511E01
:101C10008A411A7000217520FFF724F903001A0089
:101C2000FB1D1B781A40FB1D511E8A411A700121B1
:101C3000FF20FFF717F903001A00FB1D1B781A405D
:101C4000FB1D511E8A411A702C214E20FFF70AF904
:101C500003001A00FB1D1B781A40FB1D511E8A4110
:101C60001A7000214820FFF7FDF803001A00FB1D41
:101C70001B781A40FB1D511E8A411A70202130200A
:101C8000FFF7F0F803001A00FB1D1B781A40FB1D3C
:101C9000511E8A411A700021FF20FFF7E3F803006C
:101CA0001A00FB1D1B781A40FB1D511E8A411A7039
:101CB00009213020FFF7D6F803001A00FB1D1B781E
:101CC0001A40FB1D511E8A411A7000215420FFF753
:101CD000C9F803001A00FB1D1B781A40FB1D511E9A
:101CE0008A411A7004213120FFF7BCF803001A0062
:101CF000FB1D1B781A40FB1D511E8A411A700321DF
:101D00003220FFF7AFF803001A00FB1D1B781A40C2
:101D1000FB1D511E8A411A7083214020FFF7A2F853
:101D200003001A00FB1D1B781A40FB1D511E8A413F
:101D30001A7025214620FFF795F803001A00FB1DB5
:101D40001B781A40FB1D511E8A411A700021602029
:101D5000FFF788F803001A00FB1D1B781A40FB1DD3
:101D6000511E8A411A7000212720FFF77BF80300DB
:101D70001A00FB1D1B781A40FB1D511E8A411A7068
:101D800006215020FFF76EF803001A00FB1D1B7898
:101D90001A40FB1D511E8A411A7000215120FFF785
:101DA00061F803001A00FB1D1B781A40FB1D511E31
:101DB0008A411A7096215220FFF754F803001A0046
:101DC000FB1D1B781A40FB1D511E8A411A70082109
:101DD0005620FFF747F803001A00FB1D1B781A4036
:101DE000FB1D511E8A411A7030215720FFF73AF827
:101DF00003001A00FB1D1B781A40FB1D511E8A416F
:101E00001A7000216120FFF72DF803001A00FB1D56
:101E10001B781A40FB1D511E8A411A700021622056
:101E2000FFF720F803001A00FB1D1B781A40FB1D6A
:101E3000511E8A411A7000216420FFF713F8030035
:101E40001A00FB1D1B781A40FB1D511E8A411A7097
:101E500000216520FFF706F803001A00FB1D1B7820
:101E60001A40FB1D511E8A411A70A0216620FEF700
:101E7000F9FF03001A00FB1D1B781A40FB1D511EC1
:101E80008A411A700121FF20FEF7ECFF03001A00BF
:101E9000FB1D1B781A40FB1D511E8A411A7032210E
:101EA0002220FEF7DFFF03001A00FB1D1B781A40FB
:101EB000FB1D511E8A411A7014214720FEF7D2FFE4
:101EC00003001A00FB1D1B781A40FB1D511E8A419E
:101ED0001A70FF214920FEF7C5FF03001A00FB1D01
:101EE0001B781A40FB1D511E8A411A7000214A209E
:101EF000FEF7B8FF03001A00FB1D1B781A40FB1DFC
:101F0000511E8A411A700021FF20FEF7ABFF03002B
:101F10001A00FB1D1B781A40FB1D511E8A411A70C6
:101F20000A217A20FEF79EFF03001A00FB1D1B7892
:101F30001A40FB1D511E8A411A7000217B20FEF7BA
:101F400091FF03001A00FB1D1B781A40FB1D511E58
:101F50008A411A7021217820FEF784FF03001A00BD
:101F6000FB1D1B781A40FB1D511E8A411A7001216E
:101F7000FF20FEF777FF03001A00FB1D1B781A40B5
:101F8000FB1D511E8A411A7034212320FEF76AFF7F
:101F900003001A00FB1D1B781A40FB1D511E8A41CD
:101FA0001A7000214220FEF75DFF03001A00FB1D9E
:101FB0001B781A40FB1D511E8A411A70FF214420D4
:101FC000FEF750FF03001A00FB1D1B781A40FB1D93
:101FD000511E8A411A7026214520FEF743FF030057
:101FE0001A00FB1D1B781A40FB1D511E8A411A70F6
:101FF00005214620FEF736FF03001A00FB1D1B7863
:102000001A40FB1D511E8A411A7040214020FEF7E4
:1020100029FF03001A00FB1D1B781A40FB1D511EEF
:102020008A411A7006210E20FEF71CFF03001A00D9
:10203000FB1D1B781A40FB1D511E8A411A701A2184
:102040002020FEF70FFF03001A00FB1D1B781A402B
:10205000FB1D511E8A411A7040214320FEF702FFEA
:1020600003001A00FB1D1B781A40FB1D511E8A41FC
:102070001A700021FF20FEF7F5FE03001A00FB1D79
:102080001B781A40FB1D511E8A411A70032134200F
:10209000FEF7E8FE03001A00FB1D1B781A40FB1D2B
:1020A000511E8A411A7044213520FEF7DBFE0300E1
:1020B0001A00FB1D1B781A40FB1D511E8A411A7025
:1020C0000121FF20FEF7CEFE03001A00FB1D1B7846
:1020D0001A40FB1D511E8A411A7004213120FEF75F
:1020E000C1FE03001A00FB1D1B781A40FB1D511E88
:1020F0008A411A7009214B20FEF7B4FE03001A0032
:10210000FB1D1B781A40FB1D511E8A411A700521C8
:102110004C20FEF7A7FE03001A00FB1D1B781A4097
:10212000FB1D511E8A411A7004214D20FEF79AFEB4
:1021300003001A00FB1D1B781A40FB1D511E8A412B
:102140001A700021FF20FEF78DFE03001A00FB1D10
:102150001B781A40FB1D511E8A411A700021442031
:10216000FEF780FE03001A00FB1D1B781A40FB1DC2
:10217000511E8A411A7020214520FEF773FE03008C
:102180001A00FB1D1B781A40FB1D511E8A411A7054
:1021900008214720FEF766FE03001A00FB1D1B788E
:1021A0001A40FB1D511E8A411A7028214820FEF753
:1021B00059FE03001A00FB1D1B781A40FB1D511E1F
:1021C0008A411A7000216720FEF74CFE03001A00B6
:1021D000FB1D1B781A40FB1D511E8A411A700421F9
:1021E0007020FEF73FFE03001A00FB1D1B781A400B
:1021F000FB1D511E8A411A7001217120FEF732FE2B
:1022000003001A00FB1D1B781A40FB1D511E8A415A
:102210001A70FE217220FEF725FE03001A00FB1D36
:102220001B781A40FB1D511E8A411A70002176202E
:10223000FEF718FE03001A00FB1D1B781A40FB1D59
:10224000511E8A411A7000217720FEF70BFE030011
:102250001A00FB1D1B781A40FB1D511E8A411A7083
:102260000121FF20FEF7FEFD03001A00FB1D1B7875
:102270001A40FB1D511E8A411A7001210D20FEF7E4
:10228000F1FD03001A00FB1D1B781A40FB1D511EB7
:102290008A411A700021FF20FEF7E4FD03001A00B6
:1022A000FB1D1B781A40FB1D511E8A411A7001212B
:1022B0008020FEF7D7FD03001A00FB1D1B781A4093
:1022C000FB1D511E8A411A70F8210120FEF7CAFD3C
:1022D00003001A00FB1D1B781A40FB1D511E8A418A
:1022E0001A700121FF20FEF7BDFD03001A00FB1D3F
:1022F0001B781A40FB1D511E8A411A7001218E2045
:10230000FEF7B0FD03001A00FB1D1B781A40FB1DF1
:10231000511E8A411A7001210020FEF7A3FD03001F
:102320001A00FB1D1B781A40FB1D511E8A411A70B2
:102330000021FF20FEF796FD03001A00FB1D1B780D
:102340001A40FB1D511E8A411A7000218020FEF7A1
:1023500089FD03001A00FB1D1B781A40FB1D511E4E
:102360008A411A70FB1D1B781800BD4602B080BD63
:1023700080B582B000AFFB1D00221A7004210A2034
:10238000FEF770FD031E01D1002322E0FB1D1900A2
:102390008420FEF7B5FC031E01D1002319E0FB1DCC
:1023A0001B7810229343DAB2FB1D1A70FB1D1B78B9
:1023B00019008420FEF756FD031E01D1002308E01A
:1023C00001210B20FEF74EFD031E01D1002300E08A
:1023D00001231800BD4602B080BD80B582B000AFB9
:1023E0000200FB1D1A70FB1D1B7819000120FEF76F
:1023F00039FD03005A1E9341DBB21800BD4602B0FE
:1024000080BD80B500AFFFF79DFB03001A000123DC
:102410005340DBB2002B01D0002317E0FFF7A8FFE9
:1024200003001A0001235340DBB2002B01D000232C
:102430000CE0E820FFF7D1FF03001A00012353400E
:10244000DBB2002B01D0002300E001231800BD46C1
:1024500080BD90B585B000AF0200FB1D1A700F2340
:10246000FB1800221A700E23FB1800221A700C238E
:10247000FB1800221A700D23FB1800221A70FB1D96
:102480001B78002B02D0012B09D011E00E23FB1882
:1024900001221A700F23FB1841221A7008E00E2344
:1024A000FB1802221A700F23FB1801221A70C04673
:1024B0000E23FB181B7819000120FEF7D3FC031E26
:1024C00001D100233CE00F23FB181B7819000020EA
:1024D000FEF7C8FC031E01D1002331E00C243B1998
:1024E00019001320FEF70CFC03001A000D203B1806
:1024F000511E8A411A703B181B78002B05D03B19DE
:102500001B781A0007231340E8D00D23FB181B7813
:1025100001225340DBB2002B01D0002310E0012147
:102520000B20FEF79FFC031E01D1002308E00021D1
:102530000020FEF797FC031E01D1002300E00123D9
:102540001800BD4605B090BD80B500AF0020FFF774
:1025500080FF03001A0001235340DBB2002B01D09F
:10256000002318E00120FFF774FF03001A00012385
:102570005340DBB2002B01D000230CE0E820FFF732
:102580002CFF03001A0001235340DBB2002B01D0C3
:10259000002300E001231800BD4680BD80B500AFD8
:1025A000FFF726FA03001A0001235340DBB2002B89
:1025B00001D0002321E0FFF734FA03001A000123C1
:1025C0005340DBB2002B01D0002316E0FFF719FFC8
:1025D00003001A0001235340DBB2002B01D000237B
:1025E0000BE0FFF7B1FF03001A0001235340DBB2F9
:1025F000002B01D0002300E001231800BD4680BD60
:1026000090B585B000AF78600E23FB1800221A70D9
:102610000D23FB1800221A7001218020FEF722FCF6
:1026200003001A000F243B19511E8A411A70012120
:10263000FF20FEF717FC03001A003B191B781A4015
:102640003B19511E8A411A7000210020FEF70AFC36
:1026500003001A003B191B781A403B19511E8A418E
:102660001A70564B1B7819009120FEF7FBFB0300F4
:102670001A003B191B781A403B19511E8A411A70E7
:1026800001210020FEF7EEFB03001A003B191B7826
:102690001A403B19511E8A411A700021FF20FEF793
:1026A000E1FB03001A003B191B781A403B19511E2D
:1026B0008A411A7000218020FEF7D4FB03001A0023
:1026C0003B191B781A403B19511E8A411A703B195D
:1026D0001B7801225340DBB2002B01D0002368E0BD
:1026E00001210020FEF7BEFB031E01D1002360E0A4
:1026F0000E243B1919000020FEF702FB03001A000C
:102700000F203B18511E8A411A703B181B78002B72
:1027100005D03B191B781A0001231340E8D10F2381
:10272000FB181B7801225340DBB2002B01D00023A1
:102730003FE00D243B1919001320FEF7E1FA0300D6
:102740001A000F203B18511E8A411A703B181B7843
:10275000002B05D03B191B781A0007231340E8D043
:102760000F23FB181B7801225340DBB2002B01D052
:1027700000231EE07B6819001E20FEF711FB031EDC
:1027800001D1002315E001210B20FEF76BFB031E96
:1027900001D100230DE07B681B88094A934204D0D5
:1027A0007B681B88074A934202D17B68044A1A80DF
:1027B00001231800BD4605B090BDC046CC020020E4
:1027C000FE1F0000FF1F0000002243088B4274D34D
:1027D00003098B425FD3030A8B4244D3030B8B4222
:1027E00028D3030C8B420DD3FF22090212BA030C2B
:1027F0008B4202D31212090265D0030B8B4219D30C
:1028000000E0090AC30B8B4201D3CB03C01A52412B
:10281000830B8B4201D38B03C01A5241430B8B4273
:1028200001D34B03C01A5241030B8B4201D30B035C
:10283000C01A5241C30A8B4201D3CB02C01A524183
:10284000830A8B4201D38B02C01A5241430A8B4246
:1028500001D34B02C01A5241030A8B4201D30B022F
:10286000C01A5241CDD2C3098B4201D3CB01C01A49
:10287000524183098B4201D38B01C01A5241430953
:102880008B4201D34B01C01A524103098B4201D341
:102890000B01C01A5241C3088B4201D3CB00C01AAE
:1028A000524183088B4201D38B00C01A5241430826
:1028B0008B4201D34B00C01A5241411A00D201464B
:1028C000524110467047FFE701B5002000F0F0F8D4
:1028D00002BDC0460029F7D076E7704703460B4398
:1028E0007FD4002243088B4274D303098B425FD309
:1028F000030A8B4244D3030B8B4228D3030C8B4235
:102900000DD3FF22090212BA030C8B4202D312121A
:10291000090265D0030B8B4219D300E0090AC30BEF
:102920008B4201D3CB03C01A5241830B8B4201D39C
:102930008B03C01A5241430B8B4201D34B03C01A85
:102940005241030B8B4201D30B03C01A5241C30AFD
:102950008B4201D3CB02C01A5241830A8B4201D36E
:102960008B02C01A5241430A8B4201D34B02C01A58
:102970005241030A8B4201D30B02C01A5241CDD2FD
:10298000C3098B4201D3CB01C01A524183098B4248
:1029900001D38B01C01A524143098B4201D34B0131
:1029A000C01A524103098B4201D30B01C01A524194
:1029B000C3088B4201D3CB00C01A524183088B421B
:1029C00001D38B00C01A524143088B4201D34B0004
:1029D000C01A5241411A00D2014652411046704776
:1029E0005DE0CA0F00D04942031000D3404253407B
:1029F00000229C4603098B422DD3030A8B4212D33B
:102A0000FC22890112BA030A8B420CD3890192116C
:102A10008B4208D3890192118B4204D389013AD0A9
:102A2000921100E08909C3098B4201D3CB01C01A7E
:102A3000524183098B4201D38B01C01A5241430991
:102A40008B4201D34B01C01A524103098B4201D37F
:102A50000B01C01A5241C3088B4201D3CB00C01AEC
:102A6000524183088B4201D38B00C01A5241D9D204
:102A700043088B4201D34B00C01A5241411A00D285
:102A80000146634652415B10104601D34042002B81
:102A900000D54942704763465B1000D3404201B500
:102AA000002000F005F802BD0029F8D016E77047B5
:102AB0007047C046844608006146FFE71FB500F036
:102AC000F1FB002801D40021C8421FBD10B500F061
:102AD0006DFB4042013010BD10B500F0E3FB002853
:102AE00001DB002010BD012010BDC04610B500F074
:102AF000D9FB002801DD002010BD012010BDC0461B
:102B000010B500F07FFB002801DC002010BD012083
:102B100010BDC04610B500F075FB002801DA00209A
:102B200010BD012010BDC046F0B5C64647027B0A65
:102B30009C464B025A0A904645004A002D0E120E42
:102B4000CE0F00B59909C40FBF09AB1AB4424BD0E0
:102B5000002B39DD002A00D177E0FF2D00D1C1E044
:102B60008022D20411431B2B00DCFFE0013F7A01DD
:102B700000D4B1E001277F42BF01BA09160010005E
:102B800000F094FF330005388340854200DCD5E037
:102B9000B94F2D1A1F405A0700D178E10F22134078
:102BA000042B00D173E104377B0100D46FE1681C72
:102BB000FE2D00D07DE0FF200022C0051043E40779
:102BC000204380BCB846F0BD002B46D0531B002DDF
:102BD00073D1002F00D139E1012B00D17EE1FF2B11
:102BE00000D156E1013B6EE0002B00DC85E0002ABD
:102BF00051D1002972D05A1E012B00D12CE1FF2B9C
:102C000070D01B2A4CDC130008002022D840D31AB5
:102C100099400B005A1E93410343FF188023DB04A5
:102C20001F4200D12CE10135FF2DC4D0934A790811
:102C30001140012217400F437A0700D08DE01F4258
:102C4000B5D1FB089C462B002EE0002946D0012B75
:102C500067D0FF2B46D0013B85E7FE206A1C10425F
:102C600000D099E0002D00D0E6E0002F00D12FE148
:102C7000002919D080257A1AED042A4200D15AE1A0
:102C80003400CF1B00D18FE001202F4212D1FB086E
:102C90009C46002308E0FF2D24D01B2B00DC9AE08B
:102CA0000537FB089C462B0062465202520AD8B2F6
:102CB00083E7C0B2BA01520A7FE7FF2A00D1E8E0F9
:102CC0008020C00407431B2B00DC88E04F1E34002B
:102CD0001500790100D54DE72B000437FA0894461A
:102CE000FF2BE1D16346002B00D145E18022D203C6
:102CF0001A435202FF20520A5FE7002B57D0531BA2
:102D0000002D78D1002F00D1A1E05D1E012B00D154
:102D1000A2E0FF2B00D1BDE01B2D00DDC0E02B00A9
:102D200070E0791A4A0100D4B6E089018D092800C3
:102D300000F0BCFE2B000538834001252022401BFB
:102D40000130121A1F009340C7405A1E93411F437F
:102D50002AD000257B0700D108E10F233B40042B3C
:102D600000D020E77B0100D521E76AE70800202298
:102D7000D840D31A99400B005A1E93410343FF1ABF
:102D80007B0100D5F8E67B0700D15AE70F233B40D3
:102D9000042B00D007E754E77B1A1A005B0158D4D4
:102DA000002A00D0EAE600240020002205E7FE22E7
:102DB0006B1C1A4231D1002D77D1002F00D1A6E033
:102DC000002900D1BCE07A18530100D4BAE0920186
:102DD0000120520AF1E68022D204114314E73800A0
:102DE0002024D840E31A9F407B1E9F4107433400B4
:102DF0001500CF1BC4E7FF2A4CD01B2B50DC8020D2
:102E0000C004074338002025D840EB1A9F407B1EA2
:102E10009F41074315007F1800E7FF2B00D1CAE64A
:102E20007F187F087A0700D190E00F223A40042AE9
:102E300000D18BE0043751E7002F5DD1002900D08D
:102E400086E080220024FF20D203B6E634000F0083
:102E500044E73400CA1B91E67B185A0100D47EE097
:102E6000064F5B081F405A0758D00F221340042B0F
:102E700054D00223043731E7FFFFFFFBFFFFFF7D44
:102E80007B0704D00F233B40042B00D08BE62B00A4
:102E900024E73400C44625E7CB089C46012303E71A
:102EA0000531CB089C461300FEE6002FF2D0002926
:102EB00036D08023DB039C4502D3984500D2C4461C
:102EC00080226346D2031A435202FF20520A74E65C
:102ED000002900D167E73400C446E5E6CB1B5A0160
:102EE00024D59B019C09200000F0E0FD230005385B
:102EF00083403400013521E7002911D08023DB0312
:102F00009C45DDD39845DBD23400C446D8E7002980
:102F100000D149E7CB089C460023C5E6022590E690
:102F200080226346D203FF201A4346E6DB089C4614
:102F300034000123B8E6002A15D1002400203CE625
:102F40000023B1E6D3089C460023ADE61D0078E6D9
:102F500080224346D2033400FF201A432DE6DB08CB
:102F60009C460123A0E6D20894469DE601207B0101
:102F700000D59EE63900CDE7FF201A001DE6C046C9
:102F8000F0B54F464646D6464502C0B5C30F47008A
:102F900099460E1C6D0A3F0E5AD0FF2F21D0802378
:102FA000ED00DB041D43002398469A467F3F7402E0
:102FB0007300640A1B0EF60F002B1FD0FF2B42D0AC
:102FC00080220020E400D20414437F3B4A46FF1ACB
:102FD000434672400F2B00D99CE071499B00CB58AF
:102FE0009F46002D59D108239846063B74029A4605
:102FF0007300640A1B0EF60F002BDFD1002C3BD1AF
:1030000001234A464146724019430E2918D86548A3
:10301000890041588F465346022B00D1B9E0032B5B
:103020006ED04A462C00012B40D100200024C00560
:103030002043D2071043E0BCBA46B146A846F0BDD3
:10304000FF200024F3E7002C20D10223FF3FD8E724
:10305000002D05D104239846033B00279A46A6E796
:10306000280000F023FD7627431F9D4000237F4268
:1030700098469A463F1A9AE7200000F017FD431F32
:103080009C4076235B421B1A00209FE703234246A5
:103090001A4390460320FC3398E70C239846093BDB
:1030A000FF279A4683E703282CD0320038007F3070
:1030B000002847DD630704D00F232340042B00D0F2
:1030C0000434230103D53800374B80301C40FE28E0
:1030D000B6DCA401640AC0B2A9E780240022FF2064
:1030E000E403A4E78023DB031D4201D01C420BD084
:1030F0008024E4032C4364024A46FF20640A96E7D6
:103100004E462C008023DB031C4364023200FF2068
:10311000640A8CE76D01600185422ED21B230024D6
:10312000013F0126290064006D00002901DB854272
:1031300001D32D1A3443013B002BF3D16B1E9D416B
:103140002C43B3E703001A3300DA6EE701232100B2
:103150001B1A9E37D940BC400B00611E8C41234393
:10316000590704D00F211940042900D00433590114
:1031700013D49B0100205C0A59E71A2301242D1A5D
:10318000CFE7981E43425841404232000024C0B26B
:103190004DE74A46FF20002449E70120002446E786
:1031A00090910008D0910008FFFFFFF730B543026F
:1031B0004200C50F48025B0A440A48009C46120EB2
:1031C000000EC90FFF2A11D0FF280CD00123824224
:1031D0000AD1A44508D18D4211D0002A04D16346FA
:1031E0005A1E934100E00123180030BD0123FF283F
:1031F000FAD162462243F7D12B004B40F4E700237B
:10320000F2E7C04643025B0A42009C46C30F4802F5
:1032100010B5440A4800120E000EC90FFF2A1AD03A
:10322000FF280BD0002A24D1624600281ED1002C92
:103230002ED0002A32D1480001380BE0002C2AD1D0
:10324000002A02D16246002AF5D08B421DD001200F
:103250005B42184310BD6246002A1CD1FF28F6D1FC
:10326000002C18D120008B42F1D1F3E7002AE2D0E4
:10327000EBE70028EBD08B42E9D18242E7DC04DBAC
:10328000A445E4D80020A445E4D258000138E1E781
:10329000002ADFD0DBE702204042DBE78B42D6D1B9
:1032A000EEE7C04643025B0A42009C46C30F480259
:1032B00010B5440A4800120E000EC90FFF2A15D09F
:1032C000FF280BD0002A1AD1624600281DD1002CFD
:1032D00022D0002A32D1480001380FE0002C0CD156
:1032E000002A14D16246002AF5D010E06246002A76
:1032F00003D1FF2805D1002C1CD0022010BD0028CE
:103300000DD101205B421843F8E7002AE3D08B423D
:10331000F7D158000138F1E7002AEFD0F1E78B42EE
:10332000EFD18242EDDCF4DBA445EAD80020A445CD
:10333000E4D2EEE720008B42E3D1DFE78B42E0D11D
:10334000F2E7C046F0B54646D6464F464402C0B501
:10335000C30F460098460D1C640A360E00D1CBE020
:10336000FF2E6ED08023E400DB041C43002399462B
:103370009A467F3E6F026B007F0A1B0EED0F002BFB
:103380006DD0FF2B00D1A6E07F3BF6184B460A2BF1
:1033900000DD82E08023FF00DB041F4343466B40D7
:1033A00098464B460022022B0FDD494601238B40F5
:1033B000A621C9000B4200D06FE0902189000B428A
:1033C00000D0D3E08821194264D1200C2404240CBD
:1033D00021003B0C3F043F0C79435C434743584377
:1033E000E4190B0C1B199F4202D98022520280184B
:1033F00009041A04090C52189401611E8C411B0C1B
:10340000920E1B1814439B011C431B0100D5CDE0F9
:1034100030007F30002800DCAEE063070BD00F23C4
:1034200032002340042B06D00434230103D580321C
:103430001000684B1C40FE2866DCA3015B0AC0B28A
:103440001EE0002C00D08BE008239946063B6F025B
:103450009A466B007F0A1B0EED0F002B91D1002FB7
:1034600061D14A4601231A4391460A2A15DC434694
:103470006B4098464B460122022B96DC002000232D
:10348000C00518434346DD072843E0BCBA46B146B1
:10349000A846F0BDA8463C0092465346022B33D0C6
:1034A000032B11D0012BE9D030008030721C002892
:1034B00063DD6307B9D00F232340042BB4D1B4E7F5
:1034C0000F2A78D0A8463C008023DB0323435B020D
:1034D000FF205B0AD4E7FF36002F2FD102234A4694
:1034E00013430A2BD9DC42466A4090464A46002ADA
:1034F0000AD09946022258E7002C08D104239946A5
:10350000033B00269A4635E7FF200023B8E720005A
:1035100000F0CCFA7626431F9C4000237642994661
:103520009A46361A26E7380000F0C0FA4B46361A9B
:10353000763E0A2BB1DC053887402FE703234A4645
:103540001A4313000A2ABBDC42466A409046012215
:103550009A40882113000322194200D135E799E7E8
:103560000C239946093BFF269A4603E70023984619
:103570008023FF20DB0383E7320003001A3300DAE5
:103580007CE79E320123210094401B1AD940621E21
:1035900094410C43630704D00F232340042B00D035
:1035A0000434630111D50120002369E70123620877
:1035B0001C40144378E78023DB031C4284D01F4265
:1035C00082D1A846FF203B435AE7A30100205B0AB3
:1035D00056E7C046FFFFFFF7F0B5C64647027B0A35
:1035E0004A0245009C46C40F530A4800984600B55D
:1035F0002D0EBF09000ECE0F9209FF2800D171E0F9
:1036000001235E402B1AB4423CD0002B00DC9CE12D
:10361000002800D1A3E0FF2D00D18BE08021C90458
:103620000A431B2B00DCFBE0013F7B0100D47BE065
:1036300001277F42BF01B9090E00080000F036FAE9
:10364000330005388340854200DCD2E0B44F2D1AA8
:103650001F405A0700D1F6E00F221340042B00D17F
:10366000F1E004377B0100D4EDE0681CFE2D00D0B2
:1036700090E0FF200022C0051043E407204380BCF7
:10368000B846F0BD002B00DC77E100286FD1002A9E
:103690004CD0591E012B00D146E1FF2B4AD01B29EB
:1036A0006ADC0B0011002020D940C31A9A40531E37
:1036B0009A410A43BF188023DB041F4200D1BBE0BC
:1036C0000135FF2DD5D0974A7908114001221740C6
:1036D0000F437A0700D09AE01F42C6D1FB089C46F0
:1036E0002B004DE02B00FF3B002A2ED101214E4044
:1036F000B44200D1B4E0002B50D0002D00D0EAE05D
:10370000FF23002F00D1FAE0591E012B00D15CE10C
:10371000FF2B00D13DE11B2900DC22E1571E3400C4
:1037200005007B0100D583E72B000437FA08944697
:10373000FF2B25D16346002B9BD080226346D2030A
:103740001A435202FF20520A95E7B44200D1A4E086
:10375000002B23D0002DD3D0C4463400EDE7002A3F
:10376000E4D0012B39D0FF2BE4D0013B59E7FF2DEA
:10377000E0D01B2B00DCA6E00537FB089C462B00A5
:1037800062465202520AD8B275E701203A007B0124
:1037900000D43FE1C0B2BA01520A6CE7FE216B1CB3
:1037A000194252D1002D00D0ACE0002F00D11AE117
:1037B000002A00D1F4E08021BB1AC9040B4200D1D9
:1037C0003CE10124D71B3440002F46D001200F429A
:1037D000E1D1FB089C460023D2E7BF1A7A0100D44E
:1037E000DAE0BD01A80900F061F9AB0905388340B2
:1037F00001252022401B0130121A1F009340C740B0
:103800005A1E93411F4328D000257B07BDD00F23AC
:103810003B40042B00D024E77B0100D525E75DE782
:1038200011002020D940C31A9A40531E9A410A43DE
:10383000BF1A7B0100D5FDE67B0704D00F233B4078
:10384000042B00D00DE72B0070E7BB1A19005B01B9
:1038500062D4002900D0EFE60024002000220AE70D
:10386000002B1CD0002D00D003E7FF23002F47D0F2
:10387000591E012B58D0FF2B00D18BE01B2900DDF6
:1038800090E00B0039002025D940EB1A9F407B1EA9
:103890009F410F430500BF180DE7002B17D1FE21F4
:1038A0006B1C19421BD1002D00D080E0002F00D1ED
:1038B000AEE0002A74D0BA18530100D4AAE09201F5
:1038C0000120520AD7E68021C9040A43EAE6002D06
:1038D000CBD0C44631E73400FF200022CBE6FF2BDB
:1038E00000D1C6E6BA185208510705D00F21171D9E
:1038F0001140042900D019E7D208944640E734006B
:10390000170013E7002F75D1002A00D09DE0802218
:103910000024FF20D203AEE60124D11B34408BE605
:10392000FFFFFFFBFFFFFF7DBB185A0100D494E0AF
:103930004D4A5B081A40590700D192E00F210B4015
:10394000042B6ED00223171DF0E6002B00D125E7D3
:10395000411B0B00002D00D1D3E68023DB041F4365
:10396000D9E63B002024CB40611A8F40791E8F415D
:103970001F4334000500D71B5BE7002B8FD0431B90
:10398000002D00D172E71B2B0CDC8021C9040F43F2
:1039900078E73400C446CDE6FB089C460123EFE6F9
:1039A0000023EDE60532D3089C460300E8E6002F2D
:1039B000F0D0002A37D08023DB039C4500D2BCE640
:1039C000984500D3B9E6C446B7E6D31B5A0130D5B3
:1039D0009B019C09200000F069F823000538834012
:1039E0003400012505E7002A18D001240023C4462D
:1039F0003440C5E6002A16D08023DB039C4500D264
:103A00009BE6984500D398E60124C446344094E6EA
:103A1000002A04D0D3089C460023B1E600240020ED
:103A200029E6023B68E780226346D203FF201A435F
:103A300021E6DB089C4634000123A1E6002B00D1DF
:103A40000AE7DB089C4600239AE6802243460124CD
:103A5000D203FF201A4334400DE6DB089C460123C5
:103A60008EE6022348E7C046FFFFFF7D4102420089
:103A7000C30F490A0020120E7E2A03DD9D2A02DDB3
:103A8000094A98187047802000040143952A07DCF2
:103A90009620821AD1404842002BF3D10800F1E76A
:103AA000963A9140F7E7C046FFFFFF7F1C210123B4
:103AB0001B04984201D3000C10391B0A984201D311
:103AC000000A08391B09984201D30009043902A2EF
:103AD000105C40187047C046040302020101010156
:103AE0000000000000000000F0B51F0000231600D9
:103AF0008BB09F4204DA802109067B181F002D231A
:103B0000129A149C1370202303229C43462C07D046
:103B10002300453B59424B411099013ACB18109371
:103B200009AB049308AB0393139B00920293109B81
:103B3000320001933B0001F0CBF80500472C1BD16C
:103B4000119BDB0711D5109BC3180793002200239C
:103B50003000390003F044FA002801D0079B099394
:103B60003022099B07998B4220D32800099B159A84
:103B70005B1B13600BB0F0BD109BC3180793462C62
:103B8000E4D10378302B0CD100220023300039001F
:103B900003F026FA002804D10123109A9B1A139AE5
:103BA0001360139B079A1B68D318CEE7591C099121
:103BB0001A70D6E7F0B52B2385B005000C1E0270F5
:103BC00001DA4C4202336B70092C2EDDAB1C0093E2
:103BD00002ABDE1D20000A21FEF766FF3700303100
:103BE000013E200031700A210194FEF777FE019B0F
:103BF0000400632BEEDCBA1E1300303400991470FD
:103C000002A8073098420BD80023904203D309330F
:103C100002AA9B18DB1B009AD018401B05B0F0BD10
:103C20001878013308700131EAE73023E418AB70EB
:103C3000281DEC70F1E70000F0B597B00C001C9D5A
:103C40000A920B93099000F041FF036818000F934C
:103C500000F0A9FF0023072210901493237E0E93F7
:103C6000236811932B68073393430122C0CB2B6049
:103C70007B005B080D930C96A664E7640C980D9985
:103C8000A34B524205F0E6F8002831D10C980D996B
:103C900001229F4B524203F0B3F9002828D10022A1
:103CA00000233000390003F0A1F9002803D02300DD
:103CB0002D2243331A70974B0C930E9B472B01D840
:103CC000954B0C9303230025119A236101339A43EA
:103CD00022600B9B2100009309980A9B15AA00F013
:103CE000D7F9013000D098E00120404217B0F0BD74
:103CF00032003B003000390005F0ACF800280CD051
:103D0000002F03DA23002D2243331A70834B0C93C8
:103D10000E9B472BD6D8824BD3E720220E9D63689B
:103D200095435A1C43D1073363608023119ADB000B
:103D3000134300222360069214AA05920E9A0AA940
:103D4000049213AA039223225218029201936368E9
:103D50003200009309983B00FFF7C6FE13990C90C0
:103D6000472D2AD1CB1C02DB63688B4243DA0E9EBF
:103D7000023EF3B20E9320000E9A01395030139197
:103D8000FFF718FF149A050013182361012A02DCBB
:103D90002268D20701D50133236123230AAA9B5C41
:103DA000002B96D023002D2243331A7091E7472D24
:103DB000BBD1002BB9D10133B6E70E9B652BDAD905
:103DC0000E9B662B19D16368002909DD2161002B48
:103DD00002D12268D2070BD501335B18236107E0BB
:103DE000002B03D101222068104200D09A1C2261CE
:103DF0000025A165D1E767230E93149B8B4205DC58
:103E000023682161DB07F3D54B1CE7E7012200297A
:103E100001DC9218521A9B18E0E72268530508D477
:103E200023690C9A0A9909980B9DA847013029D15A
:103E30005AE70E9B652B00D8D5E0A06CE16C002200
:103E4000002303F0CDF8002833D00123354A0A9926
:103E500009980B9DA847013000D145E7149E139B9C
:103E6000B34202DB2368DB070CD50B9D109B0F9A36
:103E70000A990998A8470025013000D134E7731E3C
:103E8000AB420ADC23689B0700D5FFE0159BE06886
:103E9000984200DB2AE7180028E7220001230A994C
:103EA00009980B9F1A32B847013000D11CE7013541
:103EB000E5E7139B834237DC01231A4A0A990998E4
:103EC0000B9DA847013000D10EE7149E139B33438E
:103ED00002D12368DB07D5D50B9D109B0F9A0A9959
:103EE0000998A8470025013000D1FDE6139B5B42ED
:103EF000AB4201DC330094E7220001230A990998C0
:103F00000B9F1A32B847013000D1EDE60135EDE7DD
:103F1000FFFFEF7F109200080C9200081892000833
:103F2000149200081C920008149EA76DB74200DD91
:103F30003700002F2FDCFB430025DB173B400E939F
:103F4000A76D0E9BFB1AAB422EDC139B9E4237DC07
:103F50002368DB0734D4139DF31B751B9D4200DDE2
:103F60001D00002D35DCEB430027DB171D400C95B1
:103F7000139B0C9AF31A9B1ABB4200DC82E72200C7
:103F800001230A9909980B9D1A32A847013000D1E4
:103F9000AAE60137ECE73B000C9A0A9909980B9DB9
:103FA000A8470130C7D19FE6220001230A9909984A
:103FB0000B9F1A32B847013000D195E60135BFE7B3
:103FC000109B0F9A0A9909980B9DA8470130C2D1FE
:103FD0008AE60C9B0A99DA1909982B000B9FB847BF
:103FE0000130C0D180E6149E012E02DC01231A426A
:103FF00039D001230C9A0A9909980B9FB8470130D0
:1040000000D171E6109B0F9A0A9909980B9FB84747
:10401000013000D168E6A06CE16C731E0E930022A3
:10402000002302F0DDFF00281BD10C9A0E9B013209
:104030000A9909980B9EB04701300ED154E6220030
:1040400001230A9909980B9E1A32B047013000D11A
:104050004AE601370E9B9F42F1DB22002B005032D3
:10406000E0E60027F6E70C9AE2E7220001230A992E
:1040700009980B9E1932B047013000D134E6013562
:10408000E368159A9B1AAB42EFDCFFE60025F7E7E1
:10409000F7B5160001938A680B690C0000909342F3
:1040A00000DA13002200336043321278002A01D074
:1040B0000133336023689B0602D5336802333360D3
:1040C0002268062315001D401A4227D023004333DF
:1040D0001B785A1E93412268920630D4220001991F
:1040E0000098089D4332A847013025D00622236856
:1040F00000251340042B05D13368E568ED1AEB4326
:10410000DB171D40A3682269934201DD9B1AED185D
:104110000026B54220D1002010E00135E368326866
:104120009B1AAB42D2DD2200012301990098089F1F
:104130001932B8470130F0D101204042FEBD302095
:10414000E1184331087021005A1C45310978A21842
:10415000433202331170C1E7220001230199009814
:10416000089F1A32B8470130E6D00136D1E7000087
:10417000F0B58BB00793059006920A7E0C00433190
:10418000109B0391782A09D8622A0BD8002A00D103
:10419000BAE07A490491582A00D18EE025004235D0
:1041A0002A7022E0100063381528F7D802F0FEFECE
:1041B00016001F00F6FFF6FFF6FFF6FF1F00F6FFE2
:1041C000F6FFF6FFF6FF9F0035007E00F6FFF6FFD4
:1041D000B000F6FF3500F6FFF6FF820025001A68F2
:1041E0004235111D196013682B7001239EE01A6877
:1041F0002068111D1960050601D5166803E0400608
:10420000FBD50023D65E002E03DA2D23039A7642D7
:1042100013705A4B0A27049313E01A68216840CAA6
:10422000080602D4490600D5B6B21A60237E534A66
:104230000A2704926F2B00D1023F23000022433350
:104240001A706368A360002B06DB04212268039DBB
:104250008A43226033430CD0039D30003900FEF7BF
:1042600039FB049B013D5B5C2B70330006009F42D1
:10427000F3D9082F09D12368DB0706D562682369C3
:104280009A4202DC3023013D2B70039B5B1B2361B0
:10429000079B210000930598069B09AAFFF7F8FEEB
:1042A000013048D1012040420BB0F0BD20222168EE
:1042B0000A432260782232490491210045310A7074
:1042C0001968226840C9100602D4500600D5B6B25B
:1042D0001960D30702D5202313432360002E01D099
:1042E0001027AAE72022236893432360F8E71A687F
:1042F0002568101D6169186013682E0601D51960C4
:1043000002E06D06FBD519800023039D2361BFE702
:104310001A68111D1960156800212800626800F0F4
:1043200037FC002801D0401B6060636823610023D4
:10433000039A1370ACE72A00236906990598079D34
:10434000A8470130AED023689B0715D4099BE068CD
:104350009842A9DA1800A7E72200012306990598D8
:10436000079E1932B04701309CD00135E368099AA5
:104370009B1AAB42F0DCE9E70025F7E71E92000844
:104380002F920008F7B50C228B5E05000C001A076F
:1043900057D44A68002A02DC0A6C002A4FDDE76A1B
:1043A000002F4CD0002280212E682A601A0049017B
:1043B0000A400B4234D0626DA3895B0706D563685F
:1043C000D21A636B002B01D0236CD21A0023280071
:1043D000E76A216AB8470C23E25E431C06D12968CC
:1043E0001D2947D8294BCB40DB0743D50023636009
:1043F00023692360D20405D5431C02D12B68002B0E
:1044000000D16065616B2E60002918D02300443311
:10441000994202D0280001F03DFA002363630EE0C8
:1044200001232800216AB8470200431CC4D12B682D
:10443000002BC1D01D2B01D0162B1AD12E600020CD
:104440001DE00E69002EFAD00F680E60BA1B0192B3
:1044500000229B0700D14A69A260019B002BEEDD80
:10446000A36A32001F002800019B216AB847002878
:1044700006DCA289402301201343A3814042FEBDF4
:10448000019B36181B1A0193E7E7C0460100402044
:104490000B6970B505000C00002B02D11D0028002F
:1044A00070BD002804D0036A002B01D100F032F95E
:1044B0000C22A35E002BF1D0626ED20704D49B05C0
:1044C00002D4A06D00F05DFB28002100FFF75AFF29
:1044D000636E0500DB07E2D4A3899B05DFD4A06DE2
:1044E00000F055FBDBE70000010010B5002805D106
:1044F000054A0649064800F041F910BD054B186809
:10450000FFF7C6FFF9E7C046040000209144000809
:104510001400002010000020002310B504000360E8
:104520004360836081814366C2810361436183612B
:10453000190008225C3000F0BFFA0B4B2462636262
:104540000A4BA3620A4BE3620A4B23630A4B9C4269
:1045500005D00A4B9C4202D0094B9C4203D120005B
:10456000583000F00AFB10BDCD480008F94800089B
:10457000314900085D490008D40200203C030020B6
:10458000A403002010B5034A0349044800F0F6F8DC
:1045900010BDC04604000020914400081400002013
:1045A00041680B4B10B50400994201D0FFF770FF32
:1045B000A168084B994202D02000FFF769FFE1682B
:1045C000054B994202D02000FFF762FF10BDC046A4
:1045D000D40200203C030020A40300204B6E10B541
:1045E000DB0705D48B899B0502D4886D00F0C9FADE
:1045F000002010BD4B6E10B5DB0705D48B899B05E1
:1046000002D4886D00F0C3FA002010BD10B5094B2C
:10461000094A04211A6009480022FFF77DFF0122A0
:1046200009210748FFF778FF022212210548FFF70A
:1046300073FF10BD0C04002085450008D402002043
:104640003C030020A403002010B5024800F099FAB2
:1046500010BDC0461704002010B5024800F097FABC
:1046600010BDC04617040020F8B50700FFF7ECFFA7
:10467000254B1B68002B01D1FFF7C8FF234EB46800
:104680007368013B10D53568002D3AD1D62138002A
:10469000490001F07FF90400A84226D13060FFF7FD
:1046A000DBFF0C233B601CE00C22A55E002D1AD121
:1046B0002000174B5830E360656600F05EFAFFF7A4
:1046C000CBFF2000082229002560A56065602561D8
:1046D0006561A5615C3000F0EFF96563A563A564D1
:1046E000E5642000F8BD6834CBE70423D0220560E0
:1046F0002900250043600C30A060520000F0DCF976
:1047000034602E00BBE7C0460C04002004000020EB
:104710000100FFFF10B50400FFF796FF236A002B8E
:1047200002D0FFF799FF10BD044B2362044B1B68B6
:10473000002BF6D1FFF76AFFF3E7C046A14500085A
:104740000C04002010B5FFF77FFF0020024A034948
:1047500000F014F810BDC04604000020DD4500083C
:1047600010B5044A0449002000F008F8FFF774FF70
:1047700010BDC04604000020F5450008F7B5140040
:10478000002600900191A5686768013F04D5246860
:10479000002CF8D13000FEBDAB89012B08D90E22C8
:1047A000AB5E013304D029000098019B9847064373
:1047B0006835EAE70EB403B503AB04CB8168019317
:1047C00001F0A8FE02B008BC03B018470FB407B54B
:1047D000054904AB086804CB8168019301F09AFE97
:1047E00003B008BC04B018471000002010B5826860
:1047F00002F071F910BD000010B5034B01001868FC
:10480000826802F068F910BD10000020036A70B5DC
:1048100005000E008468002B01D1FFF77BFF636E5B
:10482000DB0705D4A3899B0502D4A06D00F0A9F98C
:10483000A3891B0702D52369002B1ED12100280064
:1048400000F0DEF8002818D001256D42636EDB070A
:1048500005D4A3899B0502D4A06D00F098F9280027
:1048600070BD002B04DAA269934217DB0A2915D028
:1048700023685A1C226019700136A3683178013B05
:10488000A3600029EDD18B420FDA220028000A3103
:1048900000F06AF80130D7D00A25D7E722002800B7
:1048A00000F062F80130E7D1CEE723685A1C22609D
:1048B0000A221A70F0E7000010B5034B01001868D7
:1048C000FFF7A4FF10BDC0461000002070B50C001B
:1048D0000E25495F00F028F9002803DB636D1B18E3
:1048E000636570BDA389024A1340A381F9E7C046FE
:1048F000FFEFFFFF00207047F8B51F008B89050010
:104900000C001600DB0505D50E23C95E002202232C
:1049100000F0F6F8A389054A28001340A38132006D
:104920000E23E15E3B0000F013F9F8BDFFEFFFFF3F
:1049300070B50C000E25495F00F0E2F80C22A35E72
:10494000421C03D1044A1340A38170BD802252014E
:104950001343A3816065F8E7FFEFFFFF10B50E2357
:10496000C95E00F0BBF810BDF8B505000F001400DB
:10497000002804D0036A002B01D1FFF7CBFEA36906
:10498000A360A3891B0702D52369002B09D121004D
:10499000280000F035F8002803D0012676423000C8
:1049A000F8BD23692068C01A6369834205DC2100D1
:1049B0002800FFF76DFD0028EFD1A3680130013B0F
:1049C000A3602368FEB25A1C22601F706369834291
:1049D00004D0A389DB07E2D50A2EE0D1210028000C
:1049E000FFF756FD0028DAD0D7E7000010B5034BDB
:1049F0000A0001001868FFF7B7FF10BD1000002083
:104A00002C4B70B5050018680C00002804D0036A10
:104A1000002B01D1FFF77EFE0C22A35E1A0721D4E2
:104A2000DA0607D409222A60402201201343A38119
:104A3000404238E05A0712D5616B002908D02300A4
:104A40004433994202D0280000F024FF002363631E
:104A50002422A389934300226260226922600822F3
:104A60001343A3812369002B0BD1A0238022A189AA
:104A70009B0092000B40934203D02100280001F0DC
:104A8000F1FF0C22A35E01211A000A400B420BD059
:104A90000022A26062695242A26100202269824221
:104AA00001D11A06C0D470BD990700D46269A26012
:104AB000F3E7C0461000002003008218934200D1A3
:104AC000704719700133F9E7F030704700487047BC
:104AD000500100200048704750010020002370B5AD
:104AE000064C050008002360FBF773FF431C03D14D
:104AF0002368002B00D02B6070BDC046D002002080
:104B000070B50500080011000022064C22601A0052
:104B1000FBF7BAFF431C03D12368002B00D02B60A6
:104B200070BDC046D002002070B50500080011001D
:104B30000022064C22601A00FCF72EF8431C03D119
:104B40002368002B00D02B6070BDC046D00200202F
:104B500070B50500080011000022064C22601A0002
:104B6000FCF756F8431C03D12368002B00D02B60C0
:104B700070BDC046D0020020704770477047704734
:104B80007047704701207047012070477047704799
:104B9000C9B28218904201D10020704703788B423D
:104BA000FBD00130F6E70023C25C0133002AFBD1C1
:104BB000581E7047F0B502690F6987B006000B00F8
:104BC00000200291BA426DDB013FBC001433059313
:104BD0001B190393330014331C19019323680493A6
:104BE000039B04981D6801352900FDF7EDFD049B2A
:104BF0000090AB422BD3059B019D9C46002305935F
:104C00000493624608CA28689446009A99B25143B0
:104C1000059A1B0C8918009A53430A0C9B181A0C0E
:104C200089B2059282B2521A0499000C52189BB2B2
:104C30001114C31A5B18191492B21B04134308C54C
:104C4000039B04916345DCD22368002B30D03000F5
:104C5000029901F017FA002823DB34000025009B9D
:104C6000029A0133009314341432236801CA029368
:104C70006B461B8981B2591A029B4919000C1B0C07
:104C80001B1A08141B181D1489B21B040B4308C4FB
:104C9000039B9342E9D2019ABB00D3181A68002AF9
:104CA00010D0009807B0F0BD2368002B04D1013F5D
:104CB000019B043CA342F7D33761C8E71A68002A76
:104CC00004D1013F019A043B9A42F7D33761E8E7E8
:104CD000F0B514001D00C2699DB010941195259F78
:104CE0000290002A10D1102000F01EFE029B021E2E
:104CF000D86104D1EF21A34BA34801F0BDFF0023ED
:104D0000436083600360C360116800290BD00123F6
:104D10005268029893404A608B6000F00DFF0022B9
:104D2000029BDB691A602E1E17DA01236E00DE403B
:104D30003B601196954B954A3340934218D1944B62
:104D4000249A3603360B1360264301D100F073FD1D
:104D5000269B002B04D18F4B20E000233B60E9E72A
:104D60008C4B05938C4B269A136005981DB0F0BDB3
:104D7000109A119B0C920D930C980D990022002310
:104D800002F02EF9071E0BD00123249A1360269BF4
:104D9000002B02D0814B269A1360814B0593E4E7E8
:104DA0001AAB01931BAB009302980C9A0D9B01F078
:104DB00091FA1A9B0490310D0593B94279D00D9B5D
:104DC00019971A03774B120B1343774A8E180C98D6
:104DD0000D9919000022754B03F032FC744A754B93
:104DE00003F076F9744A754B02F028F9040030009C
:104DF0000D0004F087F8724A724B03F069F9020063
:104E00000B002000290002F019F904000D0004F045
:104E100041F80022039000232000290002F0E6F868
:104E200000280BD0039804F06DF82B00220002F04C
:104E3000D7F843425841039B1B1A03930123139352
:104E4000039B162B0FD80C980D99039A5E4BD2003A
:104E50009B180CCB02F0CAF8002846D0039B013BFC
:104E6000039300231393059B9E1B00230693731E3D
:104E700003D50122931B069300230A93039B002B67
:104E800035DB0A9B039A9B180A93002312920E9318
:104E9000229B0124092B5FD8052B02DD0024043B53
:104EA0002293229B981E032860D802F075F8515374
:104EB0003529059B1B9FDF19444BFA18202A0FDD6B
:104EC00040239B1A9E40424B3000FB18DC4020439D
:104ED00004F04CF801223F4B7E1ECB18199278E764
:104EE000202320009B1A9840F2E71390BBE7069B13
:104EF000039A9B1A069353420E9300231293C7E71B
:104F00000123239A0F93039B9B180B930133089360
:104F1000002B08DC012306E001230F93239B002BC9
:104F200028DD0B930893029A0021D0690422150012
:104F300014359D4223D94160029800F0BBFD0590D5
:104F400000284BD1B021244B0F48059AFF31D4E6FD
:104F50000023E2E70023D4E700230F942293013BD0
:104F600000220B93089323921333DCE701230F9362
:104F7000023BF5E701230B9308932393D3E7013119
:104F80005200D4E74D920008649200080000F07FC0
:104F90000F270000499200084C9200081D9200085B
:104FA0001C9200080000F03F01FCFFFF0000F83FEA
:104FB00061436F63A787D23FB3C8608B288AC63F1F
:104FC000FB799F501344D33FE09300083204000064
:104FD00012040000000010FEBD920008029B059A1A
:104FE000DB691A60089B0E2B00D981E0002C00D1F0
:104FF0007EE0039B002B00DCCDE00F21039ACD4B1C
:105000000A40D2009B18C0CB039B02251C110C9AAE
:105010000D9B14921593039BDB050AD5C64B0C40E0
:105020001A6A5B6A0C980D9902F01CFC1490159199
:105030000135C14B0993002C00D09CE014981599C0
:1050400032003B0002F00EFC06000F00139B002B09
:1050500000D1CAE0002230003900B84B01F0C6FF91
:10506000002800D1C1E0089B002B00D1BDE00B9BC4
:10507000002B3DDD039B3000013B390009930022EA
:10508000AF4B03F025F806000F000B9C01352800FC
:1050900003F038FF32003B0003F01AF80022A94B5E
:1050A00001F0CCFFA84B14901591CB181593149ACE
:1050B000159B16921793002C00D09AE00022300026
:1050C0003900A24B03F0BCFA169A179B06000F009A
:1050D00001F0A0FFA04200D0D1E280201599000687
:1050E0000B18149A3000390001F080FFA04225D13E
:1050F0001B9B002B00DA93E1039A0E2A00DD8FE15F
:105100008C4BD2009B1818CB06930794239B002B43
:1051100000DB1FE1089B002B00DD1BE10ED1069890
:1051200007990022894B02F0D3FF02000B000C9874
:105130000D9901F065FF002800D1A3E20026370099
:10514000239B059CDB4309930397002731000298BA
:1051500000F0F2FC039B002B00D1E0E0002F05D013
:105160009F4203D03900029800F0E6FC03990298B0
:1051700000F0E2FCD3E001231C4208D0ED18099BAB
:1051800030000CCB390002F0A3FF06000F00099B92
:10519000641008334EE7039B02250C9E0D9F002BE5
:1051A00000D153E70F225C422240624BD2009B1891
:1051B00030000CCB390002F08BFF06000F005E4B75
:1051C00024110993002C00D140E701231C4208D090
:1051D000ED18099B30000CCB390002F079FF060076
:1051E0000F00099B64100833EBE7039B089C0993AD
:1051F0004DE7504B621ED2009B1803CB059BE31872
:1052000018930F9B002B49D002000B00002050493F
:1052100002F028FB169A179B03F012FA059B1490D4
:10522000159116933900300003F034FE050003F0A9
:1052300069FE02000B003000390003F001FA169BF2
:1052400030355C1C1D70149A159B06000F0001F090
:10525000CDFE002863D132003B000020374903F027
:10526000EFF9149A159B01F0C1FE002800D0BAE0B6
:10527000189B9C4200D13BE7149815990022304BB3
:1052800002F026FF0022149015912D4B30003900BA
:1052900002F01EFF169406000F00C3E7169A179B34
:1052A00002F016FF14901591059C3900300003F0B0
:1052B000F1FD050003F026FE0B000200390030006E
:1052C00003F0BEF93035189B2570013406000F003D
:1052D000A34227D11498159900221D4B01F0AEFE70
:1052E00002000B0030003900189C01F093FE0028EA
:1052F00000D078E0149A159B0020154903F0A0F91E
:1053000002000B003000390001F070FE002800D1CF
:10531000EEE62300013C2278302AFAD01C00099BDB
:1053200003934EE00022064B02F0D2FE06000F006F
:10533000BBE7C046E0930008B89300080000F03FC8
:105340000000244000001C400000C0FC000014408D
:105350000000E03F089F059E013FBF19069A079B8A
:105360000C980D9902F07EFA03F094FD050003F00D
:10537000C9FD069A079B02F0ABFE02000B000C98D9
:105380000D9903F05DF92A00330030320136340004
:105390001A709F4237D102000B0001F04FFE069AAF
:1053A000079B06000F0001F035FE002819D1069A70
:1053B000079B3000390001F013FE002801D0ED07F3
:1053C0000FD40499029800F0B7FB00232370039BCD
:1053D000249A01331360269B002B00D1C5E41C6086
:1053E000C3E4039B099323001C00013B1A78392A6C
:1053F00006D1059A9A42F7D1099A013209923022D0
:1054000001321A708BE70022C54B02F061FE0022C8
:1054100000230C900D9101F0E3FD00289ED0D0E711
:105420000F9F0E9D069C002F14D0229A012A00DDAA
:10543000E3E0199A002A00D1D9E0BA4A9B18069AEB
:105440000121D21806920A9A0298D3180A9300F002
:105450007BFC0700002C0ED00A9B002B0BDD0A9A68
:105460002300944200DD1300069AE41AD21A069231
:105470000A9AD31A0A930E9B002B21D00F9B002B64
:1054800000D1D2E0049E002D14D039002A000298E9
:1054900000F02AFD049A01000700029800F06AFC5F
:1054A00006000499029800F047FB0E9B04965B1BD4
:1054B0000E9305D031000E9A029800F015FD04906D
:1054C0000121029800F040FC129B0600002B00D145
:1054D000BBE11A000100029800F006FD229B0600C5
:1054E0000025012B16DC0025109BAB420ED1119B31
:1054F0001B03AB420AD18C4B119A134206D0069B78
:105500000135013306930A9B01330A93129B012054
:10551000002B08D0336903339B00F318586800F060
:10552000C1FB2023181A0A9B1F22181803001340DE
:10553000104200D180E01B2B7ADC033AD31A069A82
:10554000E418D21806920A9AD3180A93069B002BE5
:1055500005DD1A000499029800F028FD04900A9BCA
:10556000002B05DD31001A00029800F01FFD060037
:10557000139B002B62D03100049800F083FD0028BB
:105580005CDA039B0A22013B0993049900230298E9
:1055900000F0F8FA0F9B0490002B00D15CE100238F
:1055A00039000A22029800F0EDFA0B9B0700002B4D
:1055B0004EDC229B022B47DD0B9B002B00D0BFE56E
:1055C000310005220B9B029800F0DCFA0600010076
:1055D000049800F057FD002800DCB1E5059B059A12
:1055E0005C1C31231370099B01330993ACE536230E
:1055F0001A9A0E9D9B1A069C21E7089B5D1E0E9B26
:10560000AB4208DB5D1B089B002BF4DA069B089A73
:105610009C1A002313E70E9B129AEB1AD3181293CD
:105620000E95069C0025089B09E70E9A049943E70E
:105630001C2B8BD02022D31A1C3380E7039B0993A9
:10564000089B0B93002BB4DD0F9B002B00D107E1CF
:10565000002C05DD39002200029800F0A7FC0700AD
:105660000397002D20D07968029800F023FA041ED9
:105670000CD122002D4B2E482E49FFF73EFB260071
:105680003700ABE7039B089E0993F9E739003A69B5
:105690000C31023292000C3001F0E4FA01222100B8
:1056A000029800F083FC0390059B0B9A0693013B44
:1056B0009B1801220E93109B13400C933100049809
:1056C000FFF778FA390005000A90049800F0DAFC38
:1056D000039A0B903100029800F0EEFC0122C3689F
:1056E000040030350892002B04D10100049800F02A
:1056F000C9FC08902100029800F01EFA069B229A2D
:105700005C1C089B13430C9A134315D1392D2ED0E2
:105710000B9B002B01DD0A9D3135069B1D7015E5A5
:1057200000002440330400000000F07FBD92000818
:1057300064920008EF0200000B9B002B04DB229A0E
:1057400013430C9A13431DD1089B002BE5DD0499EC
:105750000122029800F02AFC3100049000F092FC33
:10576000002802DCD9D1EB07D7D5392DD3D1069A41
:10577000157023001C00013B1A78392A51D00132E0
:105780001A70E3E4089B002B03DD392DEFD00135BF
:10579000C3E7069B069A1D700E9B93422CD00023F4
:1057A0000A220499029800F0EDF9039B04909F42AD
:1057B00009D1390000230A22029800F0E3F907001A
:1057C000039006947AE7390000230A22029800F039
:1057D000D9F9002307000A220399029800F0D2F9B0
:1057E0000390EEE700240B9BA34200DD5C1E0397B1
:1057F0000027059B0133E41804990122029800F068
:10580000D5FB3100049000F03DFC0028B1DC01D153
:10581000ED07AED423001C00013B1A78302AFAD0E1
:1058200094E4059A9A42A5D1099B059A01330993FC
:10583000312313708AE4154B269A0593144BB24218
:1058400001D0FFF790FAFFF790FA229B012B00DCC2
:1058500049E60120129D66E60B9B002B00DCA8E6C2
:10586000002431000498FFF7A5F9059B3030185546
:105870000B9B01340500A342B4DD00230A220499E6
:10588000029800F07FF90490EBE7C04640920008D0
:105890004892000870B50500002910D00C1F23683D
:1058A000002B00DAE418280000F0F4F81D4A136811
:1058B000002B05D163601460280000F0F3F870BD80
:1058C000A34208D9206821188B42F3D119685B687C
:1058D00009182160EEE71A005B68002B01D0A34293
:1058E000F9D911685018A0420BD120680918501836
:1058F00011608342E0D118685B6841181160536001
:10590000DAE7A04202D90C232B60D5E720682118E2
:105910008B4203D119685B68091821606360546089
:10592000CAE7C0461C04002010B5034B01001868EC
:1059300000F030F810BDC0461000002010B5034B39
:1059400001001868FFF7A6FF10BDC0461000002038
:1059500070B50F4C0E0021680500002902D101F03E
:1059600065F920603100280001F060F9431C03D183
:1059700001246442200070BD0323C41C9C43A04248
:10598000F8D0211A280001F051F90130F2D1EFE7E7
:1059900018040020F7B50322CB1C934308330500FD
:1059A0001F000C2B34D20C27B94233D8280000F04A
:1059B00071F8374E33681C00002C2FD139002800B5
:1059C000FFF7C6FF0400431C5FD134680094009BBE
:1059D000002B4AD19C4252D023682800E31800993A
:1059E000019301F023F9019B834248D123682800E9
:1059F000FF1A3900FFF7ACFF013040D02368DB19F4
:105A0000236033685A68002A33D1009B336019E061
:105A1000002BC9DA0C232B600020FEBD2168C91BB6
:105A200020D40B290AD9E2192760A34204D132609D
:105A300063681160536005E05A60F9E76268A34249
:105A40000ED13260280000F02DF8200007220B3024
:105A5000231D9043C21A9842DFD01B1AA350DCE7E3
:105A60005A60EFE723006468A6E7009C6368009330
:105A7000ADE71A005B68A342FBD10023DAE70C23F1
:105A800028002B6000F00EF8C6E70760DAE7C04692
:105A90001C04002010B50248FFF773F810BDC04683
:105AA0001404002010B50248FFF771F810BDC0467D
:105AB0001404002070B5C46905000E00002C10D13C
:105AC0001020FFF731FF041EE86105D122006B2191
:105AD000174B184801F0D0F800234360836003603F
